{"contractName":"DutchXCompleteModule","abi":[{"constant":true,"inputs":[],"name":"dutchXAddress","outputs":[{"name":"","type":"address"}],"payable":false,"stateMutability":"view","type":"function"},{"constant":true,"inputs":[{"name":"","type":"uint256"}],"name":"whitelistedTokens","outputs":[{"name":"","type":"address"}],"payable":false,"stateMutability":"view","type":"function"},{"constant":true,"inputs":[],"name":"manager","outputs":[{"name":"","type":"address"}],"payable":false,"stateMutability":"view","type":"function"},{"constant":true,"inputs":[],"name":"getWhitelistedOperators","outputs":[{"name":"","type":"address[]"}],"payable":false,"stateMutability":"view","type":"function"},{"constant":true,"inputs":[{"name":"","type":"uint256"}],"name":"whitelistedOperators","outputs":[{"name":"","type":"address"}],"payable":false,"stateMutability":"view","type":"function"},{"constant":true,"inputs":[{"name":"","type":"address"}],"name":"isOperator","outputs":[{"name":"","type":"bool"}],"payable":false,"stateMutability":"view","type":"function"},{"constant":false,"inputs":[{"name":"_masterCopy","type":"address"}],"name":"changeMasterCopy","outputs":[],"payable":false,"stateMutability":"nonpayable","type":"function"},{"constant":false,"inputs":[{"name":"token","type":"address"}],"name":"removeFromWhitelist","outputs":[],"payable":false,"stateMutability":"nonpayable","type":"function"},{"constant":false,"inputs":[{"name":"dx","type":"address"}],"name":"changeDXProxy","outputs":[],"payable":false,"stateMutability":"nonpayable","type":"function"},{"constant":false,"inputs":[{"name":"operator","type":"address"}],"name":"addOperator","outputs":[],"payable":false,"stateMutability":"nonpayable","type":"function"},{"constant":true,"inputs":[],"name":"NAME","outputs":[{"name":"","type":"string"}],"payable":false,"stateMutability":"view","type":"function"},{"constant":true,"inputs":[{"name":"","type":"address"}],"name":"isWhitelistedToken","outputs":[{"name":"","type":"bool"}],"payable":false,"stateMutability":"view","type":"function"},{"constant":false,"inputs":[{"name":"operator","type":"address"}],"name":"removeOperator","outputs":[],"payable":false,"stateMutability":"nonpayable","type":"function"},{"constant":true,"inputs":[],"name":"getWhitelistedTokens","outputs":[{"name":"","type":"address[]"}],"payable":false,"stateMutability":"view","type":"function"},{"constant":false,"inputs":[{"name":"token","type":"address"}],"name":"addToWhitelist","outputs":[],"payable":false,"stateMutability":"nonpayable","type":"function"},{"constant":false,"inputs":[{"name":"dx","type":"address"},{"name":"tokens","type":"address[]"},{"name":"operators","type":"address[]"},{"name":"_manager","type":"address"}],"name":"setup","outputs":[],"payable":false,"stateMutability":"nonpayable","type":"function"},{"constant":true,"inputs":[],"name":"VERSION","outputs":[{"name":"","type":"string"}],"payable":false,"stateMutability":"view","type":"function"},{"constant":false,"inputs":[{"name":"to","type":"address"},{"name":"value","type":"uint256"},{"name":"data","type":"bytes"}],"name":"executeWhitelisted","outputs":[{"name":"","type":"bool"}],"payable":false,"stateMutability":"nonpayable","type":"function"}],"bytecode":"0x608060405234801561001057600080fd5b506130ea806100206000396000f3fe6080604052600436106100fc576000357c0100000000000000000000000000000000000000000000000000000000900463ffffffff168063051b6a26146101015780632154bc44146101585780632f2f3be1146101d3578063481c6a75146102dd578063495c8bf914610334578063630868dc146103a05780636d70f7ae1461041b5780637de7edef146104845780638ab1d681146104d557806392a96ab4146105265780639870d7fe14610577578063a3f4df7e146105c8578063ab37f48614610658578063ac8a584a146106c1578063e26f790014610712578063e43252d71461077e578063e8fbb887146107cf578063ffa1ad7414610968575b600080fd5b34801561010d57600080fd5b506101166109f8565b604051808273ffffffffffffffffffffffffffffffffffffffff1673ffffffffffffffffffffffffffffffffffffffff16815260200191505060405180910390f35b34801561016457600080fd5b506101916004803603602081101561017b57600080fd5b8101908080359060200190929190505050610a1e565b604051808273ffffffffffffffffffffffffffffffffffffffff1673ffffffffffffffffffffffffffffffffffffffff16815260200191505060405180910390f35b3480156101df57600080fd5b506102c3600480360360608110156101f657600080fd5b81019080803573ffffffffffffffffffffffffffffffffffffffff169060200190929190803590602001909291908035906020019064010000000081111561023d57600080fd5b82018360208201111561024f57600080fd5b8035906020019184600183028401116401000000008311171561027157600080fd5b91908080601f016020809104026020016040519081016040528093929190818152602001838380828437600081840152601f19601f820116905080830192505050505050509192919290505050610a5c565b604051808215151515815260200191505060405180910390f35b3480156102e957600080fd5b506102f2611851565b604051808273ffffffffffffffffffffffffffffffffffffffff1673ffffffffffffffffffffffffffffffffffffffff16815260200191505060405180910390f35b34801561034057600080fd5b50610349611877565b6040518080602001828103825283818151815260200191508051906020019060200280838360005b8381101561038c578082015181840152602081019050610371565b505050509050019250505060405180910390f35b3480156103ac57600080fd5b506103d9600480360360208110156103c357600080fd5b8101908080359060200190929190505050611905565b604051808273ffffffffffffffffffffffffffffffffffffffff1673ffffffffffffffffffffffffffffffffffffffff16815260200191505060405180910390f35b34801561042757600080fd5b5061046a6004803603602081101561043e57600080fd5b81019080803573ffffffffffffffffffffffffffffffffffffffff169060200190929190505050611943565b604051808215151515815260200191505060405180910390f35b34801561049057600080fd5b506104d3600480360360208110156104a757600080fd5b81019080803573ffffffffffffffffffffffffffffffffffffffff169060200190929190505050611963565b005b3480156104e157600080fd5b50610524600480360360208110156104f857600080fd5b81019080803573ffffffffffffffffffffffffffffffffffffffff169060200190929190505050611b5c565b005b34801561053257600080fd5b506105756004803603602081101561054957600080fd5b81019080803573ffffffffffffffffffffffffffffffffffffffff169060200190929190505050611eab565b005b34801561058357600080fd5b506105c66004803603602081101561059a57600080fd5b81019080803573ffffffffffffffffffffffffffffffffffffffff16906020019092919050505061207f565b005b3480156105d457600080fd5b506105dd612392565b6040518080602001828103825283818151815260200191508051906020019080838360005b8381101561061d578082015181840152602081019050610602565b50505050905090810190601f16801561064a5780820380516001836020036101000a031916815260200191505b509250505060405180910390f35b34801561066457600080fd5b506106a76004803603602081101561067b57600080fd5b81019080803573ffffffffffffffffffffffffffffffffffffffff1690602001909291905050506123cb565b604051808215151515815260200191505060405180910390f35b3480156106cd57600080fd5b50610710600480360360208110156106e457600080fd5b81019080803573ffffffffffffffffffffffffffffffffffffffff1690602001909291905050506123eb565b005b34801561071e57600080fd5b5061072761273a565b6040518080602001828103825283818151815260200191508051906020019060200280838360005b8381101561076a57808201518184015260208101905061074f565b505050509050019250505060405180910390f35b34801561078a57600080fd5b506107cd600480360360208110156107a157600080fd5b81019080803573ffffffffffffffffffffffffffffffffffffffff1690602001909291905050506127c8565b005b3480156107db57600080fd5b50610966600480360360808110156107f257600080fd5b81019080803573ffffffffffffffffffffffffffffffffffffffff1690602001909291908035906020019064010000000081111561082f57600080fd5b82018360208201111561084157600080fd5b8035906020019184602083028401116401000000008311171561086357600080fd5b919080806020026020016040519081016040528093929190818152602001838360200280828437600081840152601f19601f820116905080830192505050505050509192919290803590602001906401000000008111156108c357600080fd5b8201836020820111156108d557600080fd5b803590602001918460208302840111640100000000831117156108f757600080fd5b919080806020026020016040519081016040528093929190818152602001838360200280828437600081840152601f19601f820116905080830192505050505050509192919290803573ffffffffffffffffffffffffffffffffffffffff169060200190929190505050612adb565b005b34801561097457600080fd5b5061097d612f67565b6040518080602001828103825283818151815260200191508051906020019080838360005b838110156109bd5780820151818401526020810190506109a2565b50505050905090810190601f1680156109ea5780820380516001836020036101000a031916815260200191505b509250505060405180910390f35b600260009054906101000a900473ffffffffffffffffffffffffffffffffffffffff1681565b600581815481101515610a2d57fe5b906000526020600020016000915054906101000a900473ffffffffffffffffffffffffffffffffffffffff1681565b6000806000600460003373ffffffffffffffffffffffffffffffffffffffff1673ffffffffffffffffffffffffffffffffffffffff16815260200190815260200160002060009054906101000a900460ff161515610b48576040517f08c379a00000000000000000000000000000000000000000000000000000000081526004018080602001828103825260288152602001807f4d6574686f642063616e206f6e6c792062652063616c6c656420627920616e2081526020017f6f70657261746f7200000000000000000000000000000000000000000000000081525060400191505060405180910390fd5b600260009054906101000a900473ffffffffffffffffffffffffffffffffffffffff1673ffffffffffffffffffffffffffffffffffffffff168673ffffffffffffffffffffffffffffffffffffffff161480610bed5750600360008773ffffffffffffffffffffffffffffffffffffffff1673ffffffffffffffffffffffffffffffffffffffff16815260200190815260200160002060009054906101000a900460ff165b1515610c87576040517f08c379a00000000000000000000000000000000000000000000000000000000081526004018080602001828103825260228152602001807f44657374696e6174696f6e2061646472657373206973206e6f7420616c6c6f7781526020017f656400000000000000000000000000000000000000000000000000000000000081525060400191505060405180910390fd5b6000602085015190508273ffffffffffffffffffffffffffffffffffffffff1663d0e30db090507c0100000000000000000000000000000000000000000000000000000000027bffffffffffffffffffffffffffffffffffffffffffffffffffffffff1916817bffffffffffffffffffffffffffffffffffffffffffffffffffffffff1916141515610db257600086141515610db1576040517f08c379a000000000000000000000000000000000000000000000000000000000815260040180806020018281038252602e8152602001807f457468207472616e73616374696f6e73206f6e6c7920616c6c6f77656420666f81526020017f72207772617070696e672045544800000000000000000000000000000000000081525060400191505060405180910390fd5b5b8273ffffffffffffffffffffffffffffffffffffffff1663095ea7b390507c0100000000000000000000000000000000000000000000000000000000027bffffffffffffffffffffffffffffffffffffffffffffffffffffffff1916817bffffffffffffffffffffffffffffffffffffffffffffffffffffffff19161415610f2e57600060248601519050600260009054906101000a900473ffffffffffffffffffffffffffffffffffffffff1673ffffffffffffffffffffffffffffffffffffffff168173ffffffffffffffffffffffffffffffffffffffff16141515610f28576040517f08c379a00000000000000000000000000000000000000000000000000000000081526004018080602001828103825260238152602001807f5370656e646572206d757374206265207468652044757463685820436f6e747281526020017f616374000000000000000000000000000000000000000000000000000000000081525060400191505060405180910390fd5b5061164f565b8173ffffffffffffffffffffffffffffffffffffffff166347e7ef2490507c0100000000000000000000000000000000000000000000000000000000027bffffffffffffffffffffffffffffffffffffffffffffffffffffffff1916817bffffffffffffffffffffffffffffffffffffffffffffffffffffffff191614156110a657600060248601519050600360008273ffffffffffffffffffffffffffffffffffffffff1673ffffffffffffffffffffffffffffffffffffffff16815260200190815260200160002060009054906101000a900460ff1615156110a0576040517f08c379a00000000000000000000000000000000000000000000000000000000081526004018080602001828103825260348152602001807f4f6e6c792077686974656c697374656420746f6b656e732063616e206265206481526020017f65706f736974206f6e207468652044757463685800000000000000000000000081525060400191505060405180910390fd5b5061164e565b8173ffffffffffffffffffffffffffffffffffffffff166359f96ae590507c0100000000000000000000000000000000000000000000000000000000027bffffffffffffffffffffffffffffffffffffffffffffffffffffffff1916817bffffffffffffffffffffffffffffffffffffffffffffffffffffffff1916141561127c576000806024870151915060448701519050600360008373ffffffffffffffffffffffffffffffffffffffff1673ffffffffffffffffffffffffffffffffffffffff16815260200190815260200160002060009054906101000a900460ff1680156111db5750600360008273ffffffffffffffffffffffffffffffffffffffff1673ffffffffffffffffffffffffffffffffffffffff16815260200190815260200160002060009054906101000a900460ff165b1515611275576040517f08c379a00000000000000000000000000000000000000000000000000000000081526004018080602001828103825260238152602001807f4f6e6c792077686974656c697374656420746f6b656e732063616e206265207381526020017f6f6c64000000000000000000000000000000000000000000000000000000000081525060400191505060405180910390fd5b505061164d565b8173ffffffffffffffffffffffffffffffffffffffff16635e7f22c290507c0100000000000000000000000000000000000000000000000000000000027bffffffffffffffffffffffffffffffffffffffffffffffffffffffff1916817bffffffffffffffffffffffffffffffffffffffffffffffffffffffff19161415611452576000806024870151915060448701519050600360008373ffffffffffffffffffffffffffffffffffffffff1673ffffffffffffffffffffffffffffffffffffffff16815260200190815260200160002060009054906101000a900460ff1680156113b15750600360008273ffffffffffffffffffffffffffffffffffffffff1673ffffffffffffffffffffffffffffffffffffffff16815260200190815260200160002060009054906101000a900460ff165b151561144b576040517f08c379a00000000000000000000000000000000000000000000000000000000081526004018080602001828103825260258152602001807f4f6e6c792077686974656c697374656420746f6b656e732063616e206265206281526020017f6f7567687400000000000000000000000000000000000000000000000000000081525060400191505060405180910390fd5b505061164c565b8173ffffffffffffffffffffffffffffffffffffffff16637895dd2190507c0100000000000000000000000000000000000000000000000000000000027bffffffffffffffffffffffffffffffffffffffffffffffffffffffff1916817bffffffffffffffffffffffffffffffffffffffffffffffffffffffff1916148061155357508173ffffffffffffffffffffffffffffffffffffffff1663d3cc8d1c90507c0100000000000000000000000000000000000000000000000000000000027bffffffffffffffffffffffffffffffffffffffffffffffffffffffff1916817bffffffffffffffffffffffffffffffffffffffffffffffffffffffff1916145b806115d757508273ffffffffffffffffffffffffffffffffffffffff1663d0e30db090507c0100000000000000000000000000000000000000000000000000000000027bffffffffffffffffffffffffffffffffffffffffffffffffffffffff1916817bffffffffffffffffffffffffffffffffffffffffffffffffffffffff1916145b151561164b576040517f08c379a00000000000000000000000000000000000000000000000000000000081526004018080602001828103825260148152602001807f46756e6374696f6e206e6f7420616c6c6f77656400000000000000000000000081525060200191505060405180910390fd5b5b5b5b5b600160009054906101000a900473ffffffffffffffffffffffffffffffffffffffff1673ffffffffffffffffffffffffffffffffffffffff1663468721a788888860006040518563ffffffff167c0100000000000000000000000000000000000000000000000000000000028152600401808573ffffffffffffffffffffffffffffffffffffffff1673ffffffffffffffffffffffffffffffffffffffff1681526020018481526020018060200183600281111561170957fe5b60ff168152602001828103825284818151815260200191508051906020019080838360005b8381101561174957808201518184015260208101905061172e565b50505050905090810190601f1680156117765780820380516001836020036101000a031916815260200191505b5095505050505050602060405180830381600087803b15801561179857600080fd5b505af11580156117ac573d6000803e3d6000fd5b505050506040513d60208110156117c257600080fd5b81019080805190602001909291905050501515611847576040517f08c379a000000000000000000000000000000000000000000000000000000000815260040180806020018281038252601d8152602001807f436f756c64206e6f742065786563757465207472616e73616374696f6e00000081525060200191505060405180910390fd5b5050509392505050565b600160009054906101000a900473ffffffffffffffffffffffffffffffffffffffff1681565b606060068054806020026020016040519081016040528092919081815260200182805480156118fb57602002820191906000526020600020905b8160009054906101000a900473ffffffffffffffffffffffffffffffffffffffff1673ffffffffffffffffffffffffffffffffffffffff16815260200190600101908083116118b1575b5050505050905090565b60068181548110151561191457fe5b906000526020600020016000915054906101000a900473ffffffffffffffffffffffffffffffffffffffff1681565b60046020528060005260406000206000915054906101000a900460ff1681565b600160009054906101000a900473ffffffffffffffffffffffffffffffffffffffff1673ffffffffffffffffffffffffffffffffffffffff163373ffffffffffffffffffffffffffffffffffffffff16141515611a4e576040517f08c379a00000000000000000000000000000000000000000000000000000000081526004018080602001828103825260268152602001807f4d6574686f642063616e206f6e6c792062652063616c6c65642066726f6d206d81526020017f616e61676572000000000000000000000000000000000000000000000000000081525060400191505060405180910390fd5b600073ffffffffffffffffffffffffffffffffffffffff168173ffffffffffffffffffffffffffffffffffffffff1614151515611b19576040517f08c379a00000000000000000000000000000000000000000000000000000000081526004018080602001828103825260248152602001807f496e76616c6964206d617374657220636f707920616464726573732070726f7681526020017f696465640000000000000000000000000000000000000000000000000000000081525060400191505060405180910390fd5b806000806101000a81548173ffffffffffffffffffffffffffffffffffffffff021916908373ffffffffffffffffffffffffffffffffffffffff16021790555050565b600160009054906101000a900473ffffffffffffffffffffffffffffffffffffffff1673ffffffffffffffffffffffffffffffffffffffff163373ffffffffffffffffffffffffffffffffffffffff16141515611c47576040517f08c379a00000000000000000000000000000000000000000000000000000000081526004018080602001828103825260268152602001807f4d6574686f642063616e206f6e6c792062652063616c6c65642066726f6d206d81526020017f616e61676572000000000000000000000000000000000000000000000000000081525060400191505060405180910390fd5b600360008273ffffffffffffffffffffffffffffffffffffffff1673ffffffffffffffffffffffffffffffffffffffff16815260200190815260200160002060009054906101000a900460ff161515611d08576040517f08c379a00000000000000000000000000000000000000000000000000000000081526004018080602001828103825260188152602001807f546f6b656e206973206e6f742077686974656c6973746564000000000000000081525060200191505060405180910390fd5b6000600360008373ffffffffffffffffffffffffffffffffffffffff1673ffffffffffffffffffffffffffffffffffffffff16815260200190815260200160002060006101000a81548160ff02191690831515021790555060008090505b600160058054905003811015611e8e578173ffffffffffffffffffffffffffffffffffffffff16600582815481101515611d9c57fe5b9060005260206000200160009054906101000a900473ffffffffffffffffffffffffffffffffffffffff1673ffffffffffffffffffffffffffffffffffffffff161415611e81576005600160058054905003815481101515611dfa57fe5b9060005260206000200160009054906101000a900473ffffffffffffffffffffffffffffffffffffffff16600582815481101515611e3457fe5b9060005260206000200160006101000a81548173ffffffffffffffffffffffffffffffffffffffff021916908373ffffffffffffffffffffffffffffffffffffffff160217905550611e8e565b8080600101915050611d66565b506001600581818054905003915081611ea79190612fa0565b5050565b600160009054906101000a900473ffffffffffffffffffffffffffffffffffffffff1673ffffffffffffffffffffffffffffffffffffffff163373ffffffffffffffffffffffffffffffffffffffff16141515611f96576040517f08c379a00000000000000000000000000000000000000000000000000000000081526004018080602001828103825260268152602001807f4d6574686f642063616e206f6e6c792062652063616c6c65642066726f6d206d81526020017f616e61676572000000000000000000000000000000000000000000000000000081525060400191505060405180910390fd5b600073ffffffffffffffffffffffffffffffffffffffff168173ffffffffffffffffffffffffffffffffffffffff161415151561203b576040517f08c379a00000000000000000000000000000000000000000000000000000000081526004018080602001828103825260188152602001807f496e76616c696420616464726573732070726f7669646564000000000000000081525060200191505060405180910390fd5b80600260006101000a81548173ffffffffffffffffffffffffffffffffffffffff021916908373ffffffffffffffffffffffffffffffffffffffff16021790555050565b600160009054906101000a900473ffffffffffffffffffffffffffffffffffffffff1673ffffffffffffffffffffffffffffffffffffffff163373ffffffffffffffffffffffffffffffffffffffff1614151561216a576040517f08c379a00000000000000000000000000000000000000000000000000000000081526004018080602001828103825260268152602001807f4d6574686f642063616e206f6e6c792062652063616c6c65642066726f6d206d81526020017f616e61676572000000000000000000000000000000000000000000000000000081525060400191505060405180910390fd5b600073ffffffffffffffffffffffffffffffffffffffff168173ffffffffffffffffffffffffffffffffffffffff161415151561220f576040517f08c379a00000000000000000000000000000000000000000000000000000000081526004018080602001828103825260188152602001807f496e76616c696420616464726573732070726f7669646564000000000000000081525060200191505060405180910390fd5b600460008273ffffffffffffffffffffffffffffffffffffffff1673ffffffffffffffffffffffffffffffffffffffff16815260200190815260200160002060009054906101000a900460ff161515156122d1576040517f08c379a000000000000000000000000000000000000000000000000000000000815260040180806020018281038252601f8152602001807f4f70657261746f7220697320616c72656164792077686974656c69737465640081525060200191505060405180910390fd5b6001600460008373ffffffffffffffffffffffffffffffffffffffff1673ffffffffffffffffffffffffffffffffffffffff16815260200190815260200160002060006101000a81548160ff02191690831515021790555060068190806001815401808255809150509060018203906000526020600020016000909192909190916101000a81548173ffffffffffffffffffffffffffffffffffffffff021916908373ffffffffffffffffffffffffffffffffffffffff1602179055505050565b6040805190810160405280601681526020017f44757463685820436f6d706c657465204d6f64756c650000000000000000000081525081565b60036020528060005260406000206000915054906101000a900460ff1681565b600160009054906101000a900473ffffffffffffffffffffffffffffffffffffffff1673ffffffffffffffffffffffffffffffffffffffff163373ffffffffffffffffffffffffffffffffffffffff161415156124d6576040517f08c379a00000000000000000000000000000000000000000000000000000000081526004018080602001828103825260268152602001807f4d6574686f642063616e206f6e6c792062652063616c6c65642066726f6d206d81526020017f616e61676572000000000000000000000000000000000000000000000000000081525060400191505060405180910390fd5b600460008273ffffffffffffffffffffffffffffffffffffffff1673ffffffffffffffffffffffffffffffffffffffff16815260200190815260200160002060009054906101000a900460ff161515612597576040517f08c379a000000000000000000000000000000000000000000000000000000000815260040180806020018281038252601b8152602001807f4f70657261746f72206973206e6f742077686974656c6973746564000000000081525060200191505060405180910390fd5b6000600460008373ffffffffffffffffffffffffffffffffffffffff1673ffffffffffffffffffffffffffffffffffffffff16815260200190815260200160002060006101000a81548160ff02191690831515021790555060008090505b60016006805490500381101561271d578173ffffffffffffffffffffffffffffffffffffffff1660068281548110151561262b57fe5b9060005260206000200160009054906101000a900473ffffffffffffffffffffffffffffffffffffffff1673ffffffffffffffffffffffffffffffffffffffff16141561271057600660016006805490500381548110151561268957fe5b9060005260206000200160009054906101000a900473ffffffffffffffffffffffffffffffffffffffff166006828154811015156126c357fe5b9060005260206000200160006101000a81548173ffffffffffffffffffffffffffffffffffffffff021916908373ffffffffffffffffffffffffffffffffffffffff16021790555061271d565b80806001019150506125f5565b5060016006818180549050039150816127369190612fa0565b5050565b606060058054806020026020016040519081016040528092919081815260200182805480156127be57602002820191906000526020600020905b8160009054906101000a900473ffffffffffffffffffffffffffffffffffffffff1673ffffffffffffffffffffffffffffffffffffffff1681526020019060010190808311612774575b5050505050905090565b600160009054906101000a900473ffffffffffffffffffffffffffffffffffffffff1673ffffffffffffffffffffffffffffffffffffffff163373ffffffffffffffffffffffffffffffffffffffff161415156128b3576040517f08c379a00000000000000000000000000000000000000000000000000000000081526004018080602001828103825260268152602001807f4d6574686f642063616e206f6e6c792062652063616c6c65642066726f6d206d81526020017f616e61676572000000000000000000000000000000000000000000000000000081525060400191505060405180910390fd5b600073ffffffffffffffffffffffffffffffffffffffff168173ffffffffffffffffffffffffffffffffffffffff1614151515612958576040517f08c379a00000000000000000000000000000000000000000000000000000000081526004018080602001828103825260168152602001807f496e76616c696420746f6b656e2070726f76696465640000000000000000000081525060200191505060405180910390fd5b600360008273ffffffffffffffffffffffffffffffffffffffff1673ffffffffffffffffffffffffffffffffffffffff16815260200190815260200160002060009054906101000a900460ff16151515612a1a576040517f08c379a000000000000000000000000000000000000000000000000000000000815260040180806020018281038252601c8152602001807f546f6b656e20697320616c72656164792077686974656c69737465640000000081525060200191505060405180910390fd5b6001600360008373ffffffffffffffffffffffffffffffffffffffff1673ffffffffffffffffffffffffffffffffffffffff16815260200190815260200160002060006101000a81548160ff02191690831515021790555060058190806001815401808255809150509060018203906000526020600020016000909192909190916101000a81548173ffffffffffffffffffffffffffffffffffffffff021916908373ffffffffffffffffffffffffffffffffffffffff1602179055505050565b600073ffffffffffffffffffffffffffffffffffffffff16600160009054906101000a900473ffffffffffffffffffffffffffffffffffffffff1673ffffffffffffffffffffffffffffffffffffffff16141515612ba1576040517f08c379a000000000000000000000000000000000000000000000000000000000815260040180806020018281038252601c8152602001807f4d616e616765722068617320616c7265616479206265656e207365740000000081525060200191505060405180910390fd5b600073ffffffffffffffffffffffffffffffffffffffff168173ffffffffffffffffffffffffffffffffffffffff161415612c1c5733600160006101000a81548173ffffffffffffffffffffffffffffffffffffffff021916908373ffffffffffffffffffffffffffffffffffffffff160217905550612c5e565b80600160006101000a81548173ffffffffffffffffffffffffffffffffffffffff021916908373ffffffffffffffffffffffffffffffffffffffff1602179055505b83600260006101000a81548173ffffffffffffffffffffffffffffffffffffffff021916908373ffffffffffffffffffffffffffffffffffffffff16021790555060008090505b8351811015612dd55760008482815181101515612cbe57fe5b906020019060200201519050600073ffffffffffffffffffffffffffffffffffffffff168173ffffffffffffffffffffffffffffffffffffffff1614151515612d6f576040517f08c379a00000000000000000000000000000000000000000000000000000000081526004018080602001828103825260168152602001807f496e76616c696420746f6b656e2070726f76696465640000000000000000000081525060200191505060405180910390fd5b6001600360008373ffffffffffffffffffffffffffffffffffffffff1673ffffffffffffffffffffffffffffffffffffffff16815260200190815260200160002060006101000a81548160ff021916908315150217905550508080600101915050612ca5565b508260059080519060200190612dec929190612fcc565b5060008090505b8251811015612f495760008382815181101515612e0c57fe5b906020019060200201519050600073ffffffffffffffffffffffffffffffffffffffff168173ffffffffffffffffffffffffffffffffffffffff1614151515612ee3576040517f08c379a00000000000000000000000000000000000000000000000000000000081526004018080602001828103825260218152602001807f496e76616c6964206f70657261746f7220616464726573732070726f7669646581526020017f640000000000000000000000000000000000000000000000000000000000000081525060400191505060405180910390fd5b6001600460008373ffffffffffffffffffffffffffffffffffffffff1673ffffffffffffffffffffffffffffffffffffffff16815260200190815260200160002060006101000a81548160ff021916908315150217905550508080600101915050612df3565b508160069080519060200190612f60929190612fcc565b5050505050565b6040805190810160405280600581526020017f302e302e3200000000000000000000000000000000000000000000000000000081525081565b815481835581811115612fc757818360005260206000209182019101612fc69190613056565b5b505050565b828054828255906000526020600020908101928215613045579160200282015b828111156130445782518260006101000a81548173ffffffffffffffffffffffffffffffffffffffff021916908373ffffffffffffffffffffffffffffffffffffffff16021790555091602001919060010190612fec565b5b509050613052919061307b565b5090565b61307891905b8082111561307457600081600090555060010161305c565b5090565b90565b6130bb91905b808211156130b757600081816101000a81549073ffffffffffffffffffffffffffffffffffffffff021916905550600101613081565b5090565b9056fea165627a7a723058203cfcab9f0da0ca5e523dc24f08c4999ae5fb61af3b372dc97df6ec1a2b8be02d0029","source":"pragma solidity 0.5.0;\nimport \"gnosis-safe/contracts/common/Enum.sol\";\nimport \"./DutchXBaseModule.sol\";\nimport \"./DutchXInterface.sol\";\nimport \"./DutchXTokenInterface.sol\";\n\n\n/// @title DutchX Module - Allows to execute transactions to DutchX contract for whitelisted token pairs without confirmations and deposit tokens in the DutchX.\n/// @author Denis Granha - <denis@gnosis.pm>\ncontract DutchXCompleteModule is DutchXBaseModule {\n\n    string public constant NAME = \"DutchX Complete Module\";\n    string public constant VERSION = \"0.0.2\";\n\n    /// @dev Returns if Safe transaction is to DutchX contract and with whitelisted tokens.\n    /// @param to Dutch X address or Whitelisted token (only for approve operations for DX).\n    /// @param value Not checked.\n    /// @param data Allowed operations (postSellOrder, postBuyOrder, claimTokensFromSeveralAuctionsAsBuyer, claimTokensFromSeveralAuctionsAsSeller, deposit).\n    /// @return Returns if transaction can be executed.\n    function executeWhitelisted(address to, uint256 value, bytes memory data)\n        public\n        returns (bool)\n    {\n\n        // Load allowed method interfaces\n        DutchXTokenInterface tokenInterface;\n        DutchXInterface dxInterface;\n\n        // Only Safe owners are allowed to execute transactions to whitelisted accounts.\n        require(isOperator[msg.sender], \"Method can only be called by an operator\");\n\n        // Only DutchX Proxy and Whitelisted tokens are allowed as destination\n        require(to == dutchXAddress || isWhitelistedToken[to], \"Destination address is not allowed\");\n\n        // Decode data\n        bytes4 functionIdentifier;\n        // solium-disable-next-line security/no-inline-assembly\n        assembly {\n            functionIdentifier := mload(add(data, 0x20))\n        }\n\n        // Only approve tokens function and deposit (in the case of WETH) is allowed against token contracts, and DutchX proxy must be the spender (for approve)\n        if (functionIdentifier != tokenInterface.deposit.selector){\n            require(value == 0, \"Eth transactions only allowed for wrapping ETH\");\n        }\n\n        // Only these functions:\n        // PostSellOrder, postBuyOrder, claimTokensFromSeveralAuctionsAsBuyer, claimTokensFromSeveralAuctionsAsSeller, deposit\n        // Are allowed for the Dutch X contract\n        if (functionIdentifier == tokenInterface.approve.selector) {\n            uint spender;\n            // solium-disable-next-line security/no-inline-assembly\n            assembly {\n                spender := mload(add(data, 0x24))\n            }\n\n            // TODO we need abi.decodeWithSelector\n            // approve(address spender, uint256 amount) we skip the amount\n            // (address spender) = abi.decode(dataParams, (address));\n\n            require(address(spender) == dutchXAddress, \"Spender must be the DutchX Contract\");\n        } else if (functionIdentifier == dxInterface.deposit.selector) {\n            // TODO we need abi.decodeWithSelector\n            // deposit(address token, uint256 amount) we skip the amount\n            // (address token) = abi.decode(data, (address));\n\n            uint depositToken;\n            // solium-disable-next-line security/no-inline-assembly\n            assembly {\n                depositToken := mload(add(data, 0x24))\n            }\n            require (isWhitelistedToken[address(depositToken)], \"Only whitelisted tokens can be deposit on the DutchX\");\n        } else if (functionIdentifier == dxInterface.postSellOrder.selector) {\n            // TODO we need abi.decodeWithSelector\n            // postSellOrder(address sellToken, address buyToken, uint256 auctionIndex, uint256 amount) we skip auctionIndex and amount\n            // (address sellToken, address buyToken) = abi.decode(data, (address, address));\n\n            uint sellToken;\n            uint buyToken;\n            // solium-disable-next-line security/no-inline-assembly\n            assembly {\n                sellToken := mload(add(data, 0x24))\n                buyToken := mload(add(data, 0x44))\n            }\n            require (isWhitelistedToken[address(sellToken)] && isWhitelistedToken[address(buyToken)], \"Only whitelisted tokens can be sold\");\n        } else if (functionIdentifier == dxInterface.postBuyOrder.selector) {\n            // TODO we need abi.decodeWithSelector\n            // postBuyOrder(address sellToken, address buyToken, uint256 auctionIndex, uint256 amount) we skip auctionIndex and amount\n            // (address sellToken, address buyToken) = abi.decode(data, (address, address));\n\n            uint sellToken;\n            uint buyToken;\n            // solium-disable-next-line security/no-inline-assembly\n            assembly {\n                sellToken := mload(add(data, 0x24))\n                buyToken := mload(add(data, 0x44))\n            }\n            require (isWhitelistedToken[address(sellToken)] && isWhitelistedToken[address(buyToken)], \"Only whitelisted tokens can be bought\");\n        } else {\n            // Other functions different than claim and deposit are not allowed\n            require(functionIdentifier == dxInterface.claimTokensFromSeveralAuctionsAsSeller.selector || functionIdentifier == dxInterface.claimTokensFromSeveralAuctionsAsBuyer.selector || functionIdentifier == tokenInterface.deposit.selector, \"Function not allowed\");\n        }\n\n        require(manager.execTransactionFromModule(to, value, data, Enum.Operation.Call), \"Could not execute transaction\");\n    }\n}\n","compiler":{"name":"solc","version":"0.5.0+commit.1d4f565a.Emscripten.clang"},"schemaVersion":"2.0.2","updatedAt":"2019-03-07T10:44:05.564Z"}