{
  "contractName": "DutchXSellerModule",
  "abi": [
    {
      "constant": true,
      "inputs": [],
      "name": "dutchXAddress",
      "outputs": [
        {
          "name": "",
          "type": "address"
        }
      ],
      "payable": false,
      "stateMutability": "view",
      "type": "function"
    },
    {
      "constant": true,
      "inputs": [],
      "name": "manager",
      "outputs": [
        {
          "name": "",
          "type": "address"
        }
      ],
      "payable": false,
      "stateMutability": "view",
      "type": "function"
    },
    {
      "constant": true,
      "inputs": [
        {
          "name": "",
          "type": "address"
        }
      ],
      "name": "isOperator",
      "outputs": [
        {
          "name": "",
          "type": "bool"
        }
      ],
      "payable": false,
      "stateMutability": "view",
      "type": "function"
    },
    {
      "constant": false,
      "inputs": [
        {
          "name": "_masterCopy",
          "type": "address"
        }
      ],
      "name": "changeMasterCopy",
      "outputs": [],
      "payable": false,
      "stateMutability": "nonpayable",
      "type": "function"
    },
    {
      "constant": false,
      "inputs": [
        {
          "name": "token",
          "type": "address"
        }
      ],
      "name": "removeFromWhitelist",
      "outputs": [],
      "payable": false,
      "stateMutability": "nonpayable",
      "type": "function"
    },
    {
      "constant": false,
      "inputs": [
        {
          "name": "dx",
          "type": "address"
        }
      ],
      "name": "changeDXProxy",
      "outputs": [],
      "payable": false,
      "stateMutability": "nonpayable",
      "type": "function"
    },
    {
      "constant": false,
      "inputs": [
        {
          "name": "operator",
          "type": "address"
        }
      ],
      "name": "addOperator",
      "outputs": [],
      "payable": false,
      "stateMutability": "nonpayable",
      "type": "function"
    },
    {
      "constant": true,
      "inputs": [],
      "name": "NAME",
      "outputs": [
        {
          "name": "",
          "type": "string"
        }
      ],
      "payable": false,
      "stateMutability": "view",
      "type": "function"
    },
    {
      "constant": true,
      "inputs": [
        {
          "name": "",
          "type": "address"
        }
      ],
      "name": "isWhitelistedToken",
      "outputs": [
        {
          "name": "",
          "type": "bool"
        }
      ],
      "payable": false,
      "stateMutability": "view",
      "type": "function"
    },
    {
      "constant": false,
      "inputs": [
        {
          "name": "operator",
          "type": "address"
        }
      ],
      "name": "removeOperator",
      "outputs": [],
      "payable": false,
      "stateMutability": "nonpayable",
      "type": "function"
    },
    {
      "constant": false,
      "inputs": [
        {
          "name": "token",
          "type": "address"
        }
      ],
      "name": "addToWhitelist",
      "outputs": [],
      "payable": false,
      "stateMutability": "nonpayable",
      "type": "function"
    },
    {
      "constant": false,
      "inputs": [
        {
          "name": "dx",
          "type": "address"
        },
        {
          "name": "tokens",
          "type": "address[]"
        },
        {
          "name": "operators",
          "type": "address[]"
        },
        {
          "name": "_manager",
          "type": "address"
        }
      ],
      "name": "setup",
      "outputs": [],
      "payable": false,
      "stateMutability": "nonpayable",
      "type": "function"
    },
    {
      "constant": true,
      "inputs": [],
      "name": "VERSION",
      "outputs": [
        {
          "name": "",
          "type": "string"
        }
      ],
      "payable": false,
      "stateMutability": "view",
      "type": "function"
    },
    {
      "constant": false,
      "inputs": [
        {
          "name": "to",
          "type": "address"
        },
        {
          "name": "value",
          "type": "uint256"
        },
        {
          "name": "data",
          "type": "bytes"
        }
      ],
      "name": "executeWhitelisted",
      "outputs": [
        {
          "name": "",
          "type": "bool"
        }
      ],
      "payable": false,
      "stateMutability": "nonpayable",
      "type": "function"
    }
  ],
  "bytecode": "0x608060405234801561001057600080fd5b506126d9806100206000396000f3fe6080604052600436106100d0576000357c0100000000000000000000000000000000000000000000000000000000900463ffffffff168063051b6a26146100d55780632f2f3be11461012c578063481c6a75146102365780636d70f7ae1461028d5780637de7edef146102f65780638ab1d6811461034757806392a96ab4146103985780639870d7fe146103e9578063a3f4df7e1461043a578063ab37f486146104ca578063ac8a584a14610533578063e43252d714610584578063e8fbb887146105d5578063ffa1ad741461076e575b600080fd5b3480156100e157600080fd5b506100ea6107fe565b604051808273ffffffffffffffffffffffffffffffffffffffff1673ffffffffffffffffffffffffffffffffffffffff16815260200191505060405180910390f35b34801561013857600080fd5b5061021c6004803603606081101561014f57600080fd5b81019080803573ffffffffffffffffffffffffffffffffffffffff169060200190929190803590602001909291908035906020019064010000000081111561019657600080fd5b8201836020820111156101a857600080fd5b803590602001918460018302840111640100000000831117156101ca57600080fd5b91908080601f016020809104026020016040519081016040528093929190818152602001838380828437600081840152601f19601f820116905080830192505050505050509192919290505050610824565b604051808215151515815260200191505060405180910390f35b34801561024257600080fd5b5061024b611442565b604051808273ffffffffffffffffffffffffffffffffffffffff1673ffffffffffffffffffffffffffffffffffffffff16815260200191505060405180910390f35b34801561029957600080fd5b506102dc600480360360208110156102b057600080fd5b81019080803573ffffffffffffffffffffffffffffffffffffffff169060200190929190505050611468565b604051808215151515815260200191505060405180910390f35b34801561030257600080fd5b506103456004803603602081101561031957600080fd5b81019080803573ffffffffffffffffffffffffffffffffffffffff169060200190929190505050611488565b005b34801561035357600080fd5b506103966004803603602081101561036a57600080fd5b81019080803573ffffffffffffffffffffffffffffffffffffffff169060200190929190505050611681565b005b3480156103a457600080fd5b506103e7600480360360208110156103bb57600080fd5b81019080803573ffffffffffffffffffffffffffffffffffffffff169060200190929190505050611888565b005b3480156103f557600080fd5b506104386004803603602081101561040c57600080fd5b81019080803573ffffffffffffffffffffffffffffffffffffffff169060200190929190505050611a5c565b005b34801561044657600080fd5b5061044f611d09565b6040518080602001828103825283818151815260200191508051906020019080838360005b8381101561048f578082015181840152602081019050610474565b50505050905090810190601f1680156104bc5780820380516001836020036101000a031916815260200191505b509250505060405180910390f35b3480156104d657600080fd5b50610519600480360360208110156104ed57600080fd5b81019080803573ffffffffffffffffffffffffffffffffffffffff169060200190929190505050611d42565b604051808215151515815260200191505060405180910390f35b34801561053f57600080fd5b506105826004803603602081101561055657600080fd5b81019080803573ffffffffffffffffffffffffffffffffffffffff169060200190929190505050611d62565b005b34801561059057600080fd5b506105d3600480360360208110156105a757600080fd5b81019080803573ffffffffffffffffffffffffffffffffffffffff169060200190929190505050611f69565b005b3480156105e157600080fd5b5061076c600480360360808110156105f857600080fd5b81019080803573ffffffffffffffffffffffffffffffffffffffff1690602001909291908035906020019064010000000081111561063557600080fd5b82018360208201111561064757600080fd5b8035906020019184602083028401116401000000008311171561066957600080fd5b919080806020026020016040519081016040528093929190818152602001838360200280828437600081840152601f19601f820116905080830192505050505050509192919290803590602001906401000000008111156106c957600080fd5b8201836020820111156106db57600080fd5b803590602001918460208302840111640100000000831117156106fd57600080fd5b919080806020026020016040519081016040528093929190818152602001838360200280828437600081840152601f19601f820116905080830192505050505050509192919290803573ffffffffffffffffffffffffffffffffffffffff169060200190929190505050612216565b005b34801561077a57600080fd5b50610783612674565b6040518080602001828103825283818151815260200191508051906020019080838360005b838110156107c35780820151818401526020810190506107a8565b50505050905090810190601f1680156107f05780820380516001836020036101000a031916815260200191505b509250505060405180910390f35b600260009054906101000a900473ffffffffffffffffffffffffffffffffffffffff1681565b6000806000600460003373ffffffffffffffffffffffffffffffffffffffff1673ffffffffffffffffffffffffffffffffffffffff16815260200190815260200160002060009054906101000a900460ff161515610910576040517f08c379a00000000000000000000000000000000000000000000000000000000081526004018080602001828103825260288152602001807f4d6574686f642063616e206f6e6c792062652063616c6c656420627920616e2081526020017f6f70657261746f7200000000000000000000000000000000000000000000000081525060400191505060405180910390fd5b600260009054906101000a900473ffffffffffffffffffffffffffffffffffffffff1673ffffffffffffffffffffffffffffffffffffffff168673ffffffffffffffffffffffffffffffffffffffff1614806109b55750600360008773ffffffffffffffffffffffffffffffffffffffff1673ffffffffffffffffffffffffffffffffffffffff16815260200190815260200160002060009054906101000a900460ff165b1515610a4f576040517f08c379a00000000000000000000000000000000000000000000000000000000081526004018080602001828103825260228152602001807f44657374696e6174696f6e2061646472657373206973206e6f7420616c6c6f7781526020017f656400000000000000000000000000000000000000000000000000000000000081525060400191505060405180910390fd5b6000602085015190508273ffffffffffffffffffffffffffffffffffffffff1663d0e30db090507c0100000000000000000000000000000000000000000000000000000000027bffffffffffffffffffffffffffffffffffffffffffffffffffffffff1916817bffffffffffffffffffffffffffffffffffffffffffffffffffffffff1916141515610b7a57600086141515610b79576040517f08c379a000000000000000000000000000000000000000000000000000000000815260040180806020018281038252602e8152602001807f457468207472616e73616374696f6e73206f6e6c7920616c6c6f77656420666f81526020017f72207772617070696e672045544800000000000000000000000000000000000081525060400191505060405180910390fd5b5b8273ffffffffffffffffffffffffffffffffffffffff1663095ea7b390507c0100000000000000000000000000000000000000000000000000000000027bffffffffffffffffffffffffffffffffffffffffffffffffffffffff1916817bffffffffffffffffffffffffffffffffffffffffffffffffffffffff19161415610cf657600060248601519050600260009054906101000a900473ffffffffffffffffffffffffffffffffffffffff1673ffffffffffffffffffffffffffffffffffffffff168173ffffffffffffffffffffffffffffffffffffffff16141515610cf0576040517f08c379a00000000000000000000000000000000000000000000000000000000081526004018080602001828103825260238152602001807f5370656e646572206d757374206265207468652044757463685820436f6e747281526020017f616374000000000000000000000000000000000000000000000000000000000081525060400191505060405180910390fd5b50611240565b8173ffffffffffffffffffffffffffffffffffffffff166347e7ef2490507c0100000000000000000000000000000000000000000000000000000000027bffffffffffffffffffffffffffffffffffffffffffffffffffffffff1916817bffffffffffffffffffffffffffffffffffffffffffffffffffffffff19161415610e6e57600060248601519050600360008273ffffffffffffffffffffffffffffffffffffffff1673ffffffffffffffffffffffffffffffffffffffff16815260200190815260200160002060009054906101000a900460ff161515610e68576040517f08c379a00000000000000000000000000000000000000000000000000000000081526004018080602001828103825260348152602001807f4f6e6c792077686974656c697374656420746f6b656e732063616e206265206481526020017f65706f736974206f6e207468652044757463685800000000000000000000000081525060400191505060405180910390fd5b5061123f565b8173ffffffffffffffffffffffffffffffffffffffff166359f96ae590507c0100000000000000000000000000000000000000000000000000000000027bffffffffffffffffffffffffffffffffffffffffffffffffffffffff1916817bffffffffffffffffffffffffffffffffffffffffffffffffffffffff19161415611044576000806024870151915060448701519050600360008373ffffffffffffffffffffffffffffffffffffffff1673ffffffffffffffffffffffffffffffffffffffff16815260200190815260200160002060009054906101000a900460ff168015610fa35750600360008273ffffffffffffffffffffffffffffffffffffffff1673ffffffffffffffffffffffffffffffffffffffff16815260200190815260200160002060009054906101000a900460ff165b151561103d576040517f08c379a00000000000000000000000000000000000000000000000000000000081526004018080602001828103825260238152602001807f4f6e6c792077686974656c697374656420746f6b656e732063616e206265207381526020017f6f6c64000000000000000000000000000000000000000000000000000000000081525060400191505060405180910390fd5b505061123e565b8173ffffffffffffffffffffffffffffffffffffffff16637895dd2190507c0100000000000000000000000000000000000000000000000000000000027bffffffffffffffffffffffffffffffffffffffffffffffffffffffff1916817bffffffffffffffffffffffffffffffffffffffffffffffffffffffff1916148061114557508173ffffffffffffffffffffffffffffffffffffffff1663d3cc8d1c90507c0100000000000000000000000000000000000000000000000000000000027bffffffffffffffffffffffffffffffffffffffffffffffffffffffff1916817bffffffffffffffffffffffffffffffffffffffffffffffffffffffff1916145b806111c957508273ffffffffffffffffffffffffffffffffffffffff1663d0e30db090507c0100000000000000000000000000000000000000000000000000000000027bffffffffffffffffffffffffffffffffffffffffffffffffffffffff1916817bffffffffffffffffffffffffffffffffffffffffffffffffffffffff1916145b151561123d576040517f08c379a00000000000000000000000000000000000000000000000000000000081526004018080602001828103825260148152602001807f46756e6374696f6e206e6f7420616c6c6f77656400000000000000000000000081525060200191505060405180910390fd5b5b5b5b600160009054906101000a900473ffffffffffffffffffffffffffffffffffffffff1673ffffffffffffffffffffffffffffffffffffffff1663468721a788888860006040518563ffffffff167c0100000000000000000000000000000000000000000000000000000000028152600401808573ffffffffffffffffffffffffffffffffffffffff1673ffffffffffffffffffffffffffffffffffffffff168152602001848152602001806020018360028111156112fa57fe5b60ff168152602001828103825284818151815260200191508051906020019080838360005b8381101561133a57808201518184015260208101905061131f565b50505050905090810190601f1680156113675780820380516001836020036101000a031916815260200191505b5095505050505050602060405180830381600087803b15801561138957600080fd5b505af115801561139d573d6000803e3d6000fd5b505050506040513d60208110156113b357600080fd5b81019080805190602001909291905050501515611438576040517f08c379a000000000000000000000000000000000000000000000000000000000815260040180806020018281038252601d8152602001807f436f756c64206e6f742065786563757465207472616e73616374696f6e00000081525060200191505060405180910390fd5b5050509392505050565b600160009054906101000a900473ffffffffffffffffffffffffffffffffffffffff1681565b60046020528060005260406000206000915054906101000a900460ff1681565b600160009054906101000a900473ffffffffffffffffffffffffffffffffffffffff1673ffffffffffffffffffffffffffffffffffffffff163373ffffffffffffffffffffffffffffffffffffffff16141515611573576040517f08c379a00000000000000000000000000000000000000000000000000000000081526004018080602001828103825260268152602001807f4d6574686f642063616e206f6e6c792062652063616c6c65642066726f6d206d81526020017f616e61676572000000000000000000000000000000000000000000000000000081525060400191505060405180910390fd5b600073ffffffffffffffffffffffffffffffffffffffff168173ffffffffffffffffffffffffffffffffffffffff161415151561163e576040517f08c379a00000000000000000000000000000000000000000000000000000000081526004018080602001828103825260248152602001807f496e76616c6964206d617374657220636f707920616464726573732070726f7681526020017f696465640000000000000000000000000000000000000000000000000000000081525060400191505060405180910390fd5b806000806101000a81548173ffffffffffffffffffffffffffffffffffffffff021916908373ffffffffffffffffffffffffffffffffffffffff16021790555050565b600160009054906101000a900473ffffffffffffffffffffffffffffffffffffffff1673ffffffffffffffffffffffffffffffffffffffff163373ffffffffffffffffffffffffffffffffffffffff1614151561176c576040517f08c379a00000000000000000000000000000000000000000000000000000000081526004018080602001828103825260268152602001807f4d6574686f642063616e206f6e6c792062652063616c6c65642066726f6d206d81526020017f616e61676572000000000000000000000000000000000000000000000000000081525060400191505060405180910390fd5b600360008273ffffffffffffffffffffffffffffffffffffffff1673ffffffffffffffffffffffffffffffffffffffff16815260200190815260200160002060009054906101000a900460ff16151561182d576040517f08c379a00000000000000000000000000000000000000000000000000000000081526004018080602001828103825260188152602001807f546f6b656e206973206e6f742077686974656c6973746564000000000000000081525060200191505060405180910390fd5b6000600360008373ffffffffffffffffffffffffffffffffffffffff1673ffffffffffffffffffffffffffffffffffffffff16815260200190815260200160002060006101000a81548160ff02191690831515021790555050565b600160009054906101000a900473ffffffffffffffffffffffffffffffffffffffff1673ffffffffffffffffffffffffffffffffffffffff163373ffffffffffffffffffffffffffffffffffffffff16141515611973576040517f08c379a00000000000000000000000000000000000000000000000000000000081526004018080602001828103825260268152602001807f4d6574686f642063616e206f6e6c792062652063616c6c65642066726f6d206d81526020017f616e61676572000000000000000000000000000000000000000000000000000081525060400191505060405180910390fd5b600073ffffffffffffffffffffffffffffffffffffffff168173ffffffffffffffffffffffffffffffffffffffff1614151515611a18576040517f08c379a00000000000000000000000000000000000000000000000000000000081526004018080602001828103825260188152602001807f496e76616c696420616464726573732070726f7669646564000000000000000081525060200191505060405180910390fd5b80600260006101000a81548173ffffffffffffffffffffffffffffffffffffffff021916908373ffffffffffffffffffffffffffffffffffffffff16021790555050565b600160009054906101000a900473ffffffffffffffffffffffffffffffffffffffff1673ffffffffffffffffffffffffffffffffffffffff163373ffffffffffffffffffffffffffffffffffffffff16141515611b47576040517f08c379a00000000000000000000000000000000000000000000000000000000081526004018080602001828103825260268152602001807f4d6574686f642063616e206f6e6c792062652063616c6c65642066726f6d206d81526020017f616e61676572000000000000000000000000000000000000000000000000000081525060400191505060405180910390fd5b600073ffffffffffffffffffffffffffffffffffffffff168173ffffffffffffffffffffffffffffffffffffffff1614151515611bec576040517f08c379a00000000000000000000000000000000000000000000000000000000081526004018080602001828103825260188152602001807f496e76616c696420616464726573732070726f7669646564000000000000000081525060200191505060405180910390fd5b600460008273ffffffffffffffffffffffffffffffffffffffff1673ffffffffffffffffffffffffffffffffffffffff16815260200190815260200160002060009054906101000a900460ff16151515611cae576040517f08c379a000000000000000000000000000000000000000000000000000000000815260040180806020018281038252601f8152602001807f4f70657261746f7220697320616c72656164792077686974656c69737465640081525060200191505060405180910390fd5b6001600460008373ffffffffffffffffffffffffffffffffffffffff1673ffffffffffffffffffffffffffffffffffffffff16815260200190815260200160002060006101000a81548160ff02191690831515021790555050565b6040805190810160405280601481526020017f4475746368582053656c6c6572204d6f64756c6500000000000000000000000081525081565b60036020528060005260406000206000915054906101000a900460ff1681565b600160009054906101000a900473ffffffffffffffffffffffffffffffffffffffff1673ffffffffffffffffffffffffffffffffffffffff163373ffffffffffffffffffffffffffffffffffffffff16141515611e4d576040517f08c379a00000000000000000000000000000000000000000000000000000000081526004018080602001828103825260268152602001807f4d6574686f642063616e206f6e6c792062652063616c6c65642066726f6d206d81526020017f616e61676572000000000000000000000000000000000000000000000000000081525060400191505060405180910390fd5b600460008273ffffffffffffffffffffffffffffffffffffffff1673ffffffffffffffffffffffffffffffffffffffff16815260200190815260200160002060009054906101000a900460ff161515611f0e576040517f08c379a000000000000000000000000000000000000000000000000000000000815260040180806020018281038252601b8152602001807f4f70657261746f72206973206e6f742077686974656c6973746564000000000081525060200191505060405180910390fd5b6000600460008373ffffffffffffffffffffffffffffffffffffffff1673ffffffffffffffffffffffffffffffffffffffff16815260200190815260200160002060006101000a81548160ff02191690831515021790555050565b600160009054906101000a900473ffffffffffffffffffffffffffffffffffffffff1673ffffffffffffffffffffffffffffffffffffffff163373ffffffffffffffffffffffffffffffffffffffff16141515612054576040517f08c379a00000000000000000000000000000000000000000000000000000000081526004018080602001828103825260268152602001807f4d6574686f642063616e206f6e6c792062652063616c6c65642066726f6d206d81526020017f616e61676572000000000000000000000000000000000000000000000000000081525060400191505060405180910390fd5b600073ffffffffffffffffffffffffffffffffffffffff168173ffffffffffffffffffffffffffffffffffffffff16141515156120f9576040517f08c379a00000000000000000000000000000000000000000000000000000000081526004018080602001828103825260168152602001807f496e76616c696420746f6b656e2070726f76696465640000000000000000000081525060200191505060405180910390fd5b600360008273ffffffffffffffffffffffffffffffffffffffff1673ffffffffffffffffffffffffffffffffffffffff16815260200190815260200160002060009054906101000a900460ff161515156121bb576040517f08c379a000000000000000000000000000000000000000000000000000000000815260040180806020018281038252601c8152602001807f546f6b656e20697320616c72656164792077686974656c69737465640000000081525060200191505060405180910390fd5b6001600360008373ffffffffffffffffffffffffffffffffffffffff1673ffffffffffffffffffffffffffffffffffffffff16815260200190815260200160002060006101000a81548160ff02191690831515021790555050565b600073ffffffffffffffffffffffffffffffffffffffff16600160009054906101000a900473ffffffffffffffffffffffffffffffffffffffff1673ffffffffffffffffffffffffffffffffffffffff161415156122dc576040517f08c379a000000000000000000000000000000000000000000000000000000000815260040180806020018281038252601c8152602001807f4d616e616765722068617320616c7265616479206265656e207365740000000081525060200191505060405180910390fd5b600073ffffffffffffffffffffffffffffffffffffffff168173ffffffffffffffffffffffffffffffffffffffff1614156123575733600160006101000a81548173ffffffffffffffffffffffffffffffffffffffff021916908373ffffffffffffffffffffffffffffffffffffffff160217905550612399565b80600160006101000a81548173ffffffffffffffffffffffffffffffffffffffff021916908373ffffffffffffffffffffffffffffffffffffffff1602179055505b83600260006101000a81548173ffffffffffffffffffffffffffffffffffffffff021916908373ffffffffffffffffffffffffffffffffffffffff16021790555060008090505b835181101561251057600084828151811015156123f957fe5b906020019060200201519050600073ffffffffffffffffffffffffffffffffffffffff168173ffffffffffffffffffffffffffffffffffffffff16141515156124aa576040517f08c379a00000000000000000000000000000000000000000000000000000000081526004018080602001828103825260168152602001807f496e76616c696420746f6b656e2070726f76696465640000000000000000000081525060200191505060405180910390fd5b6001600360008373ffffffffffffffffffffffffffffffffffffffff1673ffffffffffffffffffffffffffffffffffffffff16815260200190815260200160002060006101000a81548160ff0219169083151502179055505080806001019150506123e0565b5060008090505b825181101561266d576000838281518110151561253057fe5b906020019060200201519050600073ffffffffffffffffffffffffffffffffffffffff168173ffffffffffffffffffffffffffffffffffffffff1614151515612607576040517f08c379a00000000000000000000000000000000000000000000000000000000081526004018080602001828103825260218152602001807f496e76616c6964206f70657261746f7220616464726573732070726f7669646581526020017f640000000000000000000000000000000000000000000000000000000000000081525060400191505060405180910390fd5b6001600460008373ffffffffffffffffffffffffffffffffffffffff1673ffffffffffffffffffffffffffffffffffffffff16815260200190815260200160002060006101000a81548160ff021916908315150217905550508080600101915050612517565b5050505050565b6040805190810160405280600581526020017f302e302e320000000000000000000000000000000000000000000000000000008152508156fea165627a7a72305820c7850fa5db1260710a68d4a43bc7e104a865015be2a3a796cd6241e4b24a4fd50029",
  "source": "pragma solidity 0.5.0;\nimport \"gnosis-safe/contracts/common/Enum.sol\";\nimport \"./DutchXBaseModule.sol\";\nimport \"./DutchXInterface.sol\";\nimport \"./DutchXTokenInterface.sol\";\n\n\n/// @title DutchX Module - Allows to execute transactions to DutchX contract for whitelisted token pairs without confirmations and deposit tokens in the DutchX.\n//  differs from the Complete module in the allowed functions, it doesn't allow to perform buy operations.\n/// @author Denis Granha - <denis@gnosis.pm>\ncontract DutchXSellerModule is DutchXBaseModule {\n\n    string public constant NAME = \"DutchX Seller Module\";\n    string public constant VERSION = \"0.0.2\";\n\n    /// @dev Returns if Safe transaction is to DutchX contract and with whitelisted tokens.\n    /// @param to Dutch X address or Whitelisted token (only for approve operations for DX).\n    /// @param value Not checked.\n    /// @param data Allowed operations (postSellOrder, postBuyOrder, claimTokensFromSeveralAuctionsAsBuyer, claimTokensFromSeveralAuctionsAsSeller, deposit).\n    /// @return Returns if transaction can be executed.\n    function executeWhitelisted(address to, uint256 value, bytes memory data)\n        public\n        returns (bool)\n    {\n\n        // Load allowed method interfaces\n        DutchXTokenInterface tokenInterface;\n        DutchXInterface dxInterface;\n\n        // Only Safe owners are allowed to execute transactions to whitelisted accounts.\n        require(isOperator[msg.sender], \"Method can only be called by an operator\");\n\n        // Only DutchX Proxy and Whitelisted tokens are allowed as destination\n        require(to == dutchXAddress || isWhitelistedToken[to], \"Destination address is not allowed\");\n\n        // Decode data\n        bytes4 functionIdentifier;\n        // solium-disable-next-line security/no-inline-assembly\n        assembly {\n            functionIdentifier := mload(add(data, 0x20))\n        }\n\n        // Only approve tokens function and deposit (in the case of WETH) is allowed against token contracts, and DutchX proxy must be the spender (for approve)\n        if (functionIdentifier != tokenInterface.deposit.selector){\n            require(value == 0, \"Eth transactions only allowed for wrapping ETH\");\n        }\n\n        // Only these functions:\n        // PostSellOrder, claimTokensFromSeveralAuctionsAsBuyer, claimTokensFromSeveralAuctionsAsSeller, deposit\n        // Are allowed for the Dutch X contract\n        if (functionIdentifier == tokenInterface.approve.selector) {\n            uint spender;\n            // solium-disable-next-line security/no-inline-assembly\n            assembly {\n                spender := mload(add(data, 0x24))\n            }\n\n            // TODO we need abi.decodeWithSelector\n            // approve(address spender, uint256 amount) we skip the amount\n            // (address spender) = abi.decode(dataParams, (address));\n\n            require(address(spender) == dutchXAddress, \"Spender must be the DutchX Contract\");\n        } else if (functionIdentifier == dxInterface.deposit.selector) {\n            // TODO we need abi.decodeWithSelector\n            // deposit(address token, uint256 amount) we skip the amount\n            // (address token) = abi.decode(data, (address));\n\n            uint depositToken;\n            // solium-disable-next-line security/no-inline-assembly\n            assembly {\n                depositToken := mload(add(data, 0x24))\n            }\n            require (isWhitelistedToken[address(depositToken)], \"Only whitelisted tokens can be deposit on the DutchX\");\n        } else if (functionIdentifier == dxInterface.postSellOrder.selector) {\n            // TODO we need abi.decodeWithSelector\n            // postSellOrder(address sellToken, address buyToken, uint256 auctionIndex, uint256 amount) we skip auctionIndex and amount\n            // (address sellToken, address buyToken) = abi.decode(data, (address, address));\n\n            uint sellToken;\n            uint buyToken;\n            // solium-disable-next-line security/no-inline-assembly\n            assembly {\n                sellToken := mload(add(data, 0x24))\n                buyToken := mload(add(data, 0x44))\n            }\n            require (isWhitelistedToken[address(sellToken)] && isWhitelistedToken[address(buyToken)], \"Only whitelisted tokens can be sold\");\n        } else {\n            // Other functions different than claim and deposit are not allowed\n            require(functionIdentifier == dxInterface.claimTokensFromSeveralAuctionsAsSeller.selector || functionIdentifier == dxInterface.claimTokensFromSeveralAuctionsAsBuyer.selector || functionIdentifier == tokenInterface.deposit.selector, \"Function not allowed\");\n        }\n\n        require(manager.execTransactionFromModule(to, value, data, Enum.Operation.Call), \"Could not execute transaction\");\n    }\n}\n",
  "sourcePath": "/Users/denis/projects/gnosis/safe-modules/contracts/DutchXSellerModule.sol",
  "compiler": {
    "name": "solc",
    "version": "0.5.0+commit.1d4f565a.Emscripten.clang"
  },
  "schemaVersion": "2.0.2",
  "updatedAt": "2019-02-22T16:34:36.671Z"
}