{
  "contractName": "DutchXCompleteModule",
  "abi": [
    {
      "constant": false,
      "inputs": [
        {
          "name": "dx",
          "type": "address"
        },
        {
          "name": "tokens",
          "type": "address[]"
        },
        {
          "name": "operators",
          "type": "address[]"
        }
      ],
      "name": "setup",
      "outputs": [],
      "payable": false,
      "stateMutability": "nonpayable",
      "type": "function"
    },
    {
      "constant": true,
      "inputs": [],
      "name": "dutchXAddress",
      "outputs": [
        {
          "name": "",
          "type": "address"
        }
      ],
      "payable": false,
      "stateMutability": "view",
      "type": "function"
    },
    {
      "constant": true,
      "inputs": [],
      "name": "manager",
      "outputs": [
        {
          "name": "",
          "type": "address"
        }
      ],
      "payable": false,
      "stateMutability": "view",
      "type": "function"
    },
    {
      "constant": true,
      "inputs": [
        {
          "name": "",
          "type": "address"
        }
      ],
      "name": "isOperator",
      "outputs": [
        {
          "name": "",
          "type": "bool"
        }
      ],
      "payable": false,
      "stateMutability": "view",
      "type": "function"
    },
    {
      "constant": false,
      "inputs": [
        {
          "name": "_masterCopy",
          "type": "address"
        }
      ],
      "name": "changeMasterCopy",
      "outputs": [],
      "payable": false,
      "stateMutability": "nonpayable",
      "type": "function"
    },
    {
      "constant": false,
      "inputs": [
        {
          "name": "token",
          "type": "address"
        }
      ],
      "name": "removeFromWhitelist",
      "outputs": [],
      "payable": false,
      "stateMutability": "nonpayable",
      "type": "function"
    },
    {
      "constant": false,
      "inputs": [
        {
          "name": "dx",
          "type": "address"
        }
      ],
      "name": "changeDXProxy",
      "outputs": [],
      "payable": false,
      "stateMutability": "nonpayable",
      "type": "function"
    },
    {
      "constant": false,
      "inputs": [
        {
          "name": "operator",
          "type": "address"
        }
      ],
      "name": "addOperator",
      "outputs": [],
      "payable": false,
      "stateMutability": "nonpayable",
      "type": "function"
    },
    {
      "constant": true,
      "inputs": [],
      "name": "NAME",
      "outputs": [
        {
          "name": "",
          "type": "string"
        }
      ],
      "payable": false,
      "stateMutability": "view",
      "type": "function"
    },
    {
      "constant": true,
      "inputs": [
        {
          "name": "",
          "type": "address"
        }
      ],
      "name": "isWhitelistedToken",
      "outputs": [
        {
          "name": "",
          "type": "bool"
        }
      ],
      "payable": false,
      "stateMutability": "view",
      "type": "function"
    },
    {
      "constant": false,
      "inputs": [
        {
          "name": "operator",
          "type": "address"
        }
      ],
      "name": "removeOperator",
      "outputs": [],
      "payable": false,
      "stateMutability": "nonpayable",
      "type": "function"
    },
    {
      "constant": false,
      "inputs": [
        {
          "name": "token",
          "type": "address"
        }
      ],
      "name": "addToWhitelist",
      "outputs": [],
      "payable": false,
      "stateMutability": "nonpayable",
      "type": "function"
    },
    {
      "constant": true,
      "inputs": [],
      "name": "VERSION",
      "outputs": [
        {
          "name": "",
          "type": "string"
        }
      ],
      "payable": false,
      "stateMutability": "view",
      "type": "function"
    },
    {
      "constant": false,
      "inputs": [
        {
          "name": "to",
          "type": "address"
        },
        {
          "name": "value",
          "type": "uint256"
        },
        {
          "name": "data",
          "type": "bytes"
        }
      ],
      "name": "executeWhitelisted",
      "outputs": [
        {
          "name": "",
          "type": "bool"
        }
      ],
      "payable": false,
      "stateMutability": "nonpayable",
      "type": "function"
    }
  ],
  "bytecode": "0x608060405234801561001057600080fd5b5061281d806100206000396000f3fe6080604052600436106100d0576000357c0100000000000000000000000000000000000000000000000000000000900463ffffffff16806305184198146100d5578063051b6a261461024e5780632f2f3be1146102a5578063481c6a75146103af5780636d70f7ae146104065780637de7edef1461046f5780638ab1d681146104c057806392a96ab4146105115780639870d7fe14610562578063a3f4df7e146105b3578063ab37f48614610643578063ac8a584a146106ac578063e43252d7146106fd578063ffa1ad741461074e575b600080fd5b3480156100e157600080fd5b5061024c600480360360608110156100f857600080fd5b81019080803573ffffffffffffffffffffffffffffffffffffffff1690602001909291908035906020019064010000000081111561013557600080fd5b82018360208201111561014757600080fd5b8035906020019184602083028401116401000000008311171561016957600080fd5b919080806020026020016040519081016040528093929190818152602001838360200280828437600081840152601f19601f820116905080830192505050505050509192919290803590602001906401000000008111156101c957600080fd5b8201836020820111156101db57600080fd5b803590602001918460208302840111640100000000831117156101fd57600080fd5b919080806020026020016040519081016040528093929190818152602001838360200280828437600081840152601f19601f8201169050808301925050505050505091929192905050506107de565b005b34801561025a57600080fd5b50610263610ac0565b604051808273ffffffffffffffffffffffffffffffffffffffff1673ffffffffffffffffffffffffffffffffffffffff16815260200191505060405180910390f35b3480156102b157600080fd5b50610395600480360360608110156102c857600080fd5b81019080803573ffffffffffffffffffffffffffffffffffffffff169060200190929190803590602001909291908035906020019064010000000081111561030f57600080fd5b82018360208201111561032157600080fd5b8035906020019184600183028401116401000000008311171561034357600080fd5b91908080601f016020809104026020016040519081016040528093929190818152602001838380828437600081840152601f19601f820116905080830192505050505050509192919290505050610ae6565b604051808215151515815260200191505060405180910390f35b3480156103bb57600080fd5b506103c46118db565b604051808273ffffffffffffffffffffffffffffffffffffffff1673ffffffffffffffffffffffffffffffffffffffff16815260200191505060405180910390f35b34801561041257600080fd5b506104556004803603602081101561042957600080fd5b81019080803573ffffffffffffffffffffffffffffffffffffffff169060200190929190505050611901565b604051808215151515815260200191505060405180910390f35b34801561047b57600080fd5b506104be6004803603602081101561049257600080fd5b81019080803573ffffffffffffffffffffffffffffffffffffffff169060200190929190505050611921565b005b3480156104cc57600080fd5b5061050f600480360360208110156104e357600080fd5b81019080803573ffffffffffffffffffffffffffffffffffffffff169060200190929190505050611b1a565b005b34801561051d57600080fd5b506105606004803603602081101561053457600080fd5b81019080803573ffffffffffffffffffffffffffffffffffffffff169060200190929190505050611d21565b005b34801561056e57600080fd5b506105b16004803603602081101561058557600080fd5b81019080803573ffffffffffffffffffffffffffffffffffffffff169060200190929190505050611ef5565b005b3480156105bf57600080fd5b506105c86121a2565b6040518080602001828103825283818151815260200191508051906020019080838360005b838110156106085780820151818401526020810190506105ed565b50505050905090810190601f1680156106355780820380516001836020036101000a031916815260200191505b509250505060405180910390f35b34801561064f57600080fd5b506106926004803603602081101561066657600080fd5b81019080803573ffffffffffffffffffffffffffffffffffffffff1690602001909291905050506121db565b604051808215151515815260200191505060405180910390f35b3480156106b857600080fd5b506106fb600480360360208110156106cf57600080fd5b81019080803573ffffffffffffffffffffffffffffffffffffffff1690602001909291905050506121fb565b005b34801561070957600080fd5b5061074c6004803603602081101561072057600080fd5b81019080803573ffffffffffffffffffffffffffffffffffffffff169060200190929190505050612402565b005b34801561075a57600080fd5b506107636126af565b6040518080602001828103825283818151815260200191508051906020019080838360005b838110156107a3578082015181840152602081019050610788565b50505050905090810190601f1680156107d05780820380516001836020036101000a031916815260200191505b509250505060405180910390f35b6107e66126e8565b82600260006101000a81548173ffffffffffffffffffffffffffffffffffffffff021916908373ffffffffffffffffffffffffffffffffffffffff16021790555060008090505b825181101561095d576000838281518110151561084657fe5b906020019060200201519050600073ffffffffffffffffffffffffffffffffffffffff168173ffffffffffffffffffffffffffffffffffffffff16141515156108f7576040517f08c379a00000000000000000000000000000000000000000000000000000000081526004018080602001828103825260168152602001807f496e76616c696420746f6b656e2070726f76696465640000000000000000000081525060200191505060405180910390fd5b6001600360008373ffffffffffffffffffffffffffffffffffffffff1673ffffffffffffffffffffffffffffffffffffffff16815260200190815260200160002060006101000a81548160ff02191690831515021790555050808060010191505061082d565b5060008090505b8151811015610aba576000828281518110151561097d57fe5b906020019060200201519050600073ffffffffffffffffffffffffffffffffffffffff168173ffffffffffffffffffffffffffffffffffffffff1614151515610a54576040517f08c379a00000000000000000000000000000000000000000000000000000000081526004018080602001828103825260218152602001807f496e76616c6964206f70657261746f7220616464726573732070726f7669646581526020017f640000000000000000000000000000000000000000000000000000000000000081525060400191505060405180910390fd5b6001600460008373ffffffffffffffffffffffffffffffffffffffff1673ffffffffffffffffffffffffffffffffffffffff16815260200190815260200160002060006101000a81548160ff021916908315150217905550508080600101915050610964565b50505050565b600260009054906101000a900473ffffffffffffffffffffffffffffffffffffffff1681565b6000806000600460003373ffffffffffffffffffffffffffffffffffffffff1673ffffffffffffffffffffffffffffffffffffffff16815260200190815260200160002060009054906101000a900460ff161515610bd2576040517f08c379a00000000000000000000000000000000000000000000000000000000081526004018080602001828103825260288152602001807f4d6574686f642063616e206f6e6c792062652063616c6c656420627920616e2081526020017f6f70657261746f7200000000000000000000000000000000000000000000000081525060400191505060405180910390fd5b600260009054906101000a900473ffffffffffffffffffffffffffffffffffffffff1673ffffffffffffffffffffffffffffffffffffffff168673ffffffffffffffffffffffffffffffffffffffff161480610c775750600360008773ffffffffffffffffffffffffffffffffffffffff1673ffffffffffffffffffffffffffffffffffffffff16815260200190815260200160002060009054906101000a900460ff165b1515610d11576040517f08c379a00000000000000000000000000000000000000000000000000000000081526004018080602001828103825260228152602001807f44657374696e6174696f6e2061646472657373206973206e6f7420616c6c6f7781526020017f656400000000000000000000000000000000000000000000000000000000000081525060400191505060405180910390fd5b6000602085015190508273ffffffffffffffffffffffffffffffffffffffff1663d0e30db090507c0100000000000000000000000000000000000000000000000000000000027bffffffffffffffffffffffffffffffffffffffffffffffffffffffff1916817bffffffffffffffffffffffffffffffffffffffffffffffffffffffff1916141515610e3c57600086141515610e3b576040517f08c379a000000000000000000000000000000000000000000000000000000000815260040180806020018281038252602e8152602001807f457468207472616e73616374696f6e73206f6e6c7920616c6c6f77656420666f81526020017f72207772617070696e672045544800000000000000000000000000000000000081525060400191505060405180910390fd5b5b8273ffffffffffffffffffffffffffffffffffffffff1663095ea7b390507c0100000000000000000000000000000000000000000000000000000000027bffffffffffffffffffffffffffffffffffffffffffffffffffffffff1916817bffffffffffffffffffffffffffffffffffffffffffffffffffffffff19161415610fb857600060248601519050600260009054906101000a900473ffffffffffffffffffffffffffffffffffffffff1673ffffffffffffffffffffffffffffffffffffffff168173ffffffffffffffffffffffffffffffffffffffff16141515610fb2576040517f08c379a00000000000000000000000000000000000000000000000000000000081526004018080602001828103825260238152602001807f5370656e646572206d757374206265207468652044757463685820436f6e747281526020017f616374000000000000000000000000000000000000000000000000000000000081525060400191505060405180910390fd5b506116d9565b8173ffffffffffffffffffffffffffffffffffffffff166347e7ef2490507c0100000000000000000000000000000000000000000000000000000000027bffffffffffffffffffffffffffffffffffffffffffffffffffffffff1916817bffffffffffffffffffffffffffffffffffffffffffffffffffffffff1916141561113057600060248601519050600360008273ffffffffffffffffffffffffffffffffffffffff1673ffffffffffffffffffffffffffffffffffffffff16815260200190815260200160002060009054906101000a900460ff16151561112a576040517f08c379a00000000000000000000000000000000000000000000000000000000081526004018080602001828103825260348152602001807f4f6e6c792077686974656c697374656420746f6b656e732063616e206265206481526020017f65706f736974206f6e207468652044757463685800000000000000000000000081525060400191505060405180910390fd5b506116d8565b8173ffffffffffffffffffffffffffffffffffffffff166359f96ae590507c0100000000000000000000000000000000000000000000000000000000027bffffffffffffffffffffffffffffffffffffffffffffffffffffffff1916817bffffffffffffffffffffffffffffffffffffffffffffffffffffffff19161415611306576000806024870151915060448701519050600360008373ffffffffffffffffffffffffffffffffffffffff1673ffffffffffffffffffffffffffffffffffffffff16815260200190815260200160002060009054906101000a900460ff1680156112655750600360008273ffffffffffffffffffffffffffffffffffffffff1673ffffffffffffffffffffffffffffffffffffffff16815260200190815260200160002060009054906101000a900460ff165b15156112ff576040517f08c379a00000000000000000000000000000000000000000000000000000000081526004018080602001828103825260238152602001807f4f6e6c792077686974656c697374656420746f6b656e732063616e206265207381526020017f6f6c64000000000000000000000000000000000000000000000000000000000081525060400191505060405180910390fd5b50506116d7565b8173ffffffffffffffffffffffffffffffffffffffff16635e7f22c290507c0100000000000000000000000000000000000000000000000000000000027bffffffffffffffffffffffffffffffffffffffffffffffffffffffff1916817bffffffffffffffffffffffffffffffffffffffffffffffffffffffff191614156114dc576000806024870151915060448701519050600360008373ffffffffffffffffffffffffffffffffffffffff1673ffffffffffffffffffffffffffffffffffffffff16815260200190815260200160002060009054906101000a900460ff16801561143b5750600360008273ffffffffffffffffffffffffffffffffffffffff1673ffffffffffffffffffffffffffffffffffffffff16815260200190815260200160002060009054906101000a900460ff165b15156114d5576040517f08c379a00000000000000000000000000000000000000000000000000000000081526004018080602001828103825260258152602001807f4f6e6c792077686974656c697374656420746f6b656e732063616e206265206281526020017f6f7567687400000000000000000000000000000000000000000000000000000081525060400191505060405180910390fd5b50506116d6565b8173ffffffffffffffffffffffffffffffffffffffff16637895dd2190507c0100000000000000000000000000000000000000000000000000000000027bffffffffffffffffffffffffffffffffffffffffffffffffffffffff1916817bffffffffffffffffffffffffffffffffffffffffffffffffffffffff191614806115dd57508173ffffffffffffffffffffffffffffffffffffffff1663d3cc8d1c90507c0100000000000000000000000000000000000000000000000000000000027bffffffffffffffffffffffffffffffffffffffffffffffffffffffff1916817bffffffffffffffffffffffffffffffffffffffffffffffffffffffff1916145b8061166157508273ffffffffffffffffffffffffffffffffffffffff1663d0e30db090507c0100000000000000000000000000000000000000000000000000000000027bffffffffffffffffffffffffffffffffffffffffffffffffffffffff1916817bffffffffffffffffffffffffffffffffffffffffffffffffffffffff1916145b15156116d5576040517f08c379a00000000000000000000000000000000000000000000000000000000081526004018080602001828103825260148152602001807f46756e6374696f6e206e6f7420616c6c6f77656400000000000000000000000081525060200191505060405180910390fd5b5b5b5b5b600160009054906101000a900473ffffffffffffffffffffffffffffffffffffffff1673ffffffffffffffffffffffffffffffffffffffff1663468721a788888860006040518563ffffffff167c0100000000000000000000000000000000000000000000000000000000028152600401808573ffffffffffffffffffffffffffffffffffffffff1673ffffffffffffffffffffffffffffffffffffffff1681526020018481526020018060200183600281111561179357fe5b60ff168152602001828103825284818151815260200191508051906020019080838360005b838110156117d35780820151818401526020810190506117b8565b50505050905090810190601f1680156118005780820380516001836020036101000a031916815260200191505b5095505050505050602060405180830381600087803b15801561182257600080fd5b505af1158015611836573d6000803e3d6000fd5b505050506040513d602081101561184c57600080fd5b810190808051906020019092919050505015156118d1576040517f08c379a000000000000000000000000000000000000000000000000000000000815260040180806020018281038252601d8152602001807f436f756c64206e6f742065786563757465207472616e73616374696f6e00000081525060200191505060405180910390fd5b5050509392505050565b600160009054906101000a900473ffffffffffffffffffffffffffffffffffffffff1681565b60046020528060005260406000206000915054906101000a900460ff1681565b600160009054906101000a900473ffffffffffffffffffffffffffffffffffffffff1673ffffffffffffffffffffffffffffffffffffffff163373ffffffffffffffffffffffffffffffffffffffff16141515611a0c576040517f08c379a00000000000000000000000000000000000000000000000000000000081526004018080602001828103825260268152602001807f4d6574686f642063616e206f6e6c792062652063616c6c65642066726f6d206d81526020017f616e61676572000000000000000000000000000000000000000000000000000081525060400191505060405180910390fd5b600073ffffffffffffffffffffffffffffffffffffffff168173ffffffffffffffffffffffffffffffffffffffff1614151515611ad7576040517f08c379a00000000000000000000000000000000000000000000000000000000081526004018080602001828103825260248152602001807f496e76616c6964206d617374657220636f707920616464726573732070726f7681526020017f696465640000000000000000000000000000000000000000000000000000000081525060400191505060405180910390fd5b806000806101000a81548173ffffffffffffffffffffffffffffffffffffffff021916908373ffffffffffffffffffffffffffffffffffffffff16021790555050565b600160009054906101000a900473ffffffffffffffffffffffffffffffffffffffff1673ffffffffffffffffffffffffffffffffffffffff163373ffffffffffffffffffffffffffffffffffffffff16141515611c05576040517f08c379a00000000000000000000000000000000000000000000000000000000081526004018080602001828103825260268152602001807f4d6574686f642063616e206f6e6c792062652063616c6c65642066726f6d206d81526020017f616e61676572000000000000000000000000000000000000000000000000000081525060400191505060405180910390fd5b600360008273ffffffffffffffffffffffffffffffffffffffff1673ffffffffffffffffffffffffffffffffffffffff16815260200190815260200160002060009054906101000a900460ff161515611cc6576040517f08c379a00000000000000000000000000000000000000000000000000000000081526004018080602001828103825260188152602001807f546f6b656e206973206e6f742077686974656c6973746564000000000000000081525060200191505060405180910390fd5b6000600360008373ffffffffffffffffffffffffffffffffffffffff1673ffffffffffffffffffffffffffffffffffffffff16815260200190815260200160002060006101000a81548160ff02191690831515021790555050565b600160009054906101000a900473ffffffffffffffffffffffffffffffffffffffff1673ffffffffffffffffffffffffffffffffffffffff163373ffffffffffffffffffffffffffffffffffffffff16141515611e0c576040517f08c379a00000000000000000000000000000000000000000000000000000000081526004018080602001828103825260268152602001807f4d6574686f642063616e206f6e6c792062652063616c6c65642066726f6d206d81526020017f616e61676572000000000000000000000000000000000000000000000000000081525060400191505060405180910390fd5b600073ffffffffffffffffffffffffffffffffffffffff168173ffffffffffffffffffffffffffffffffffffffff1614151515611eb1576040517f08c379a00000000000000000000000000000000000000000000000000000000081526004018080602001828103825260188152602001807f496e76616c696420616464726573732070726f7669646564000000000000000081525060200191505060405180910390fd5b80600260006101000a81548173ffffffffffffffffffffffffffffffffffffffff021916908373ffffffffffffffffffffffffffffffffffffffff16021790555050565b600160009054906101000a900473ffffffffffffffffffffffffffffffffffffffff1673ffffffffffffffffffffffffffffffffffffffff163373ffffffffffffffffffffffffffffffffffffffff16141515611fe0576040517f08c379a00000000000000000000000000000000000000000000000000000000081526004018080602001828103825260268152602001807f4d6574686f642063616e206f6e6c792062652063616c6c65642066726f6d206d81526020017f616e61676572000000000000000000000000000000000000000000000000000081525060400191505060405180910390fd5b600073ffffffffffffffffffffffffffffffffffffffff168173ffffffffffffffffffffffffffffffffffffffff1614151515612085576040517f08c379a00000000000000000000000000000000000000000000000000000000081526004018080602001828103825260188152602001807f496e76616c696420616464726573732070726f7669646564000000000000000081525060200191505060405180910390fd5b600460008273ffffffffffffffffffffffffffffffffffffffff1673ffffffffffffffffffffffffffffffffffffffff16815260200190815260200160002060009054906101000a900460ff16151515612147576040517f08c379a000000000000000000000000000000000000000000000000000000000815260040180806020018281038252601f8152602001807f4f70657261746f7220697320616c72656164792077686974656c69737465640081525060200191505060405180910390fd5b6001600460008373ffffffffffffffffffffffffffffffffffffffff1673ffffffffffffffffffffffffffffffffffffffff16815260200190815260200160002060006101000a81548160ff02191690831515021790555050565b6040805190810160405280601681526020017f44757463685820436f6d706c657465204d6f64756c650000000000000000000081525081565b60036020528060005260406000206000915054906101000a900460ff1681565b600160009054906101000a900473ffffffffffffffffffffffffffffffffffffffff1673ffffffffffffffffffffffffffffffffffffffff163373ffffffffffffffffffffffffffffffffffffffff161415156122e6576040517f08c379a00000000000000000000000000000000000000000000000000000000081526004018080602001828103825260268152602001807f4d6574686f642063616e206f6e6c792062652063616c6c65642066726f6d206d81526020017f616e61676572000000000000000000000000000000000000000000000000000081525060400191505060405180910390fd5b600460008273ffffffffffffffffffffffffffffffffffffffff1673ffffffffffffffffffffffffffffffffffffffff16815260200190815260200160002060009054906101000a900460ff1615156123a7576040517f08c379a000000000000000000000000000000000000000000000000000000000815260040180806020018281038252601b8152602001807f4f70657261746f72206973206e6f742077686974656c6973746564000000000081525060200191505060405180910390fd5b6000600460008373ffffffffffffffffffffffffffffffffffffffff1673ffffffffffffffffffffffffffffffffffffffff16815260200190815260200160002060006101000a81548160ff02191690831515021790555050565b600160009054906101000a900473ffffffffffffffffffffffffffffffffffffffff1673ffffffffffffffffffffffffffffffffffffffff163373ffffffffffffffffffffffffffffffffffffffff161415156124ed576040517f08c379a00000000000000000000000000000000000000000000000000000000081526004018080602001828103825260268152602001807f4d6574686f642063616e206f6e6c792062652063616c6c65642066726f6d206d81526020017f616e61676572000000000000000000000000000000000000000000000000000081525060400191505060405180910390fd5b600073ffffffffffffffffffffffffffffffffffffffff168173ffffffffffffffffffffffffffffffffffffffff1614151515612592576040517f08c379a00000000000000000000000000000000000000000000000000000000081526004018080602001828103825260168152602001807f496e76616c696420746f6b656e2070726f76696465640000000000000000000081525060200191505060405180910390fd5b600360008273ffffffffffffffffffffffffffffffffffffffff1673ffffffffffffffffffffffffffffffffffffffff16815260200190815260200160002060009054906101000a900460ff16151515612654576040517f08c379a000000000000000000000000000000000000000000000000000000000815260040180806020018281038252601c8152602001807f546f6b656e20697320616c72656164792077686974656c69737465640000000081525060200191505060405180910390fd5b6001600360008373ffffffffffffffffffffffffffffffffffffffff1673ffffffffffffffffffffffffffffffffffffffff16815260200190815260200160002060006101000a81548160ff02191690831515021790555050565b6040805190810160405280600581526020017f302e302e3200000000000000000000000000000000000000000000000000000081525081565b600073ffffffffffffffffffffffffffffffffffffffff16600160009054906101000a900473ffffffffffffffffffffffffffffffffffffffff1673ffffffffffffffffffffffffffffffffffffffff161415156127ae576040517f08c379a000000000000000000000000000000000000000000000000000000000815260040180806020018281038252601c8152602001807f4d616e616765722068617320616c7265616479206265656e207365740000000081525060200191505060405180910390fd5b33600160006101000a81548173ffffffffffffffffffffffffffffffffffffffff021916908373ffffffffffffffffffffffffffffffffffffffff16021790555056fea165627a7a72305820c2664a0206aa472b7a93de0988d69c51f08c0fcd21323cd345b3c801c093f7b60029",
  "source": "pragma solidity 0.5.0;\nimport \"gnosis-safe/contracts/common/Enum.sol\";\nimport \"./DutchXBaseModule.sol\";\nimport \"./DutchXInterface.sol\";\nimport \"./DutchXTokenInterface.sol\";\n\n\n/// @title DutchX Module - Allows to execute transactions to DutchX contract for whitelisted token pairs without confirmations and deposit tokens in the DutchX.\n/// @author Denis Granha - <denis@gnosis.pm>\ncontract DutchXCompleteModule is DutchXBaseModule {\n\n    string public constant NAME = \"DutchX Complete Module\";\n    string public constant VERSION = \"0.0.2\";\n\n    /// @dev Returns if Safe transaction is to DutchX contract and with whitelisted tokens.\n    /// @param to Dutch X address or Whitelisted token (only for approve operations for DX).\n    /// @param value Not checked.\n    /// @param data Allowed operations (postSellOrder, postBuyOrder, claimTokensFromSeveralAuctionsAsBuyer, claimTokensFromSeveralAuctionsAsSeller, deposit).\n    /// @return Returns if transaction can be executed.\n    function executeWhitelisted(address to, uint256 value, bytes memory data)\n        public\n        returns (bool)\n    {\n\n        // Load allowed method interfaces\n        DutchXTokenInterface tokenInterface;\n        DutchXInterface dxInterface;\n\n        // Only Safe owners are allowed to execute transactions to whitelisted accounts.\n        require(isOperator[msg.sender], \"Method can only be called by an operator\");\n\n        // Only DutchX Proxy and Whitelisted tokens are allowed as destination\n        require(to == dutchXAddress || isWhitelistedToken[to], \"Destination address is not allowed\");\n\n        // Decode data\n        bytes4 functionIdentifier;\n        // solium-disable-next-line security/no-inline-assembly\n        assembly {\n            functionIdentifier := mload(add(data, 0x20))\n        }\n\n        // Only approve tokens function and deposit (in the case of WETH) is allowed against token contracts, and DutchX proxy must be the spender (for approve)\n        if (functionIdentifier != tokenInterface.deposit.selector){\n            require(value == 0, \"Eth transactions only allowed for wrapping ETH\");\n        }\n\n        // Only these functions:\n        // PostSellOrder, postBuyOrder, claimTokensFromSeveralAuctionsAsBuyer, claimTokensFromSeveralAuctionsAsSeller, deposit\n        // Are allowed for the Dutch X contract\n        if (functionIdentifier == tokenInterface.approve.selector) {\n            uint spender;\n            // solium-disable-next-line security/no-inline-assembly\n            assembly {\n                spender := mload(add(data, 0x24))\n            }\n\n            // TODO we need abi.decodeWithSelector\n            // approve(address spender, uint256 amount) we skip the amount\n            // (address spender) = abi.decode(dataParams, (address));\n\n            require(address(spender) == dutchXAddress, \"Spender must be the DutchX Contract\");\n        } else if (functionIdentifier == dxInterface.deposit.selector) {\n            // TODO we need abi.decodeWithSelector\n            // deposit(address token, uint256 amount) we skip the amount\n            // (address token) = abi.decode(data, (address));\n\n            uint depositToken;\n            // solium-disable-next-line security/no-inline-assembly\n            assembly {\n                depositToken := mload(add(data, 0x24))\n            }\n            require (isWhitelistedToken[address(depositToken)], \"Only whitelisted tokens can be deposit on the DutchX\");\n        } else if (functionIdentifier == dxInterface.postSellOrder.selector) {\n            // TODO we need abi.decodeWithSelector\n            // postSellOrder(address sellToken, address buyToken, uint256 auctionIndex, uint256 amount) we skip auctionIndex and amount\n            // (address sellToken, address buyToken) = abi.decode(data, (address, address));\n\n            uint sellToken;\n            uint buyToken;\n            // solium-disable-next-line security/no-inline-assembly\n            assembly {\n                sellToken := mload(add(data, 0x24))\n                buyToken := mload(add(data, 0x44))\n            }\n            require (isWhitelistedToken[address(sellToken)] && isWhitelistedToken[address(buyToken)], \"Only whitelisted tokens can be sold\");\n        } else if (functionIdentifier == dxInterface.postBuyOrder.selector) {\n            // TODO we need abi.decodeWithSelector\n            // postBuyOrder(address sellToken, address buyToken, uint256 auctionIndex, uint256 amount) we skip auctionIndex and amount\n            // (address sellToken, address buyToken) = abi.decode(data, (address, address));\n\n            uint sellToken;\n            uint buyToken;\n            // solium-disable-next-line security/no-inline-assembly\n            assembly {\n                sellToken := mload(add(data, 0x24))\n                buyToken := mload(add(data, 0x44))\n            }\n            require (isWhitelistedToken[address(sellToken)] && isWhitelistedToken[address(buyToken)], \"Only whitelisted tokens can be bought\");\n        } else {\n            // Other functions different than claim and deposit are not allowed\n            require(functionIdentifier == dxInterface.claimTokensFromSeveralAuctionsAsSeller.selector || functionIdentifier == dxInterface.claimTokensFromSeveralAuctionsAsBuyer.selector || functionIdentifier == tokenInterface.deposit.selector, \"Function not allowed\");\n        }\n\n        require(manager.execTransactionFromModule(to, value, data, Enum.Operation.Call), \"Could not execute transaction\");\n    }\n}\n",
  "sourcePath": "/Users/giacomo/Projects/Gnosis/safe-modules/contracts/DutchXCompleteModule.sol",
  "compiler": {
    "name": "solc",
    "version": "0.5.0+commit.1d4f565a.Emscripten.clang"
  },
  "schemaVersion": "3.0.1",
  "updatedAt": "2019-01-16T09:14:26.133Z",
  "devdoc": {
    "author": "Denis Granha - <denis@gnosis.pm>",
    "methods": {
      "addOperator(address)": {
        "details": "Allows to add operator to whitelist. This can only be done via a Safe transaction.",
        "params": {
          "operator": "ethereum address."
        }
      },
      "addToWhitelist(address)": {
        "details": "Allows to add token to whitelist. This can only be done via a Safe transaction.",
        "params": {
          "token": "ERC20 token address."
        }
      },
      "changeDXProxy(address)": {
        "details": "Allows to change DutchX Proxy contract address. This can only be done via a Safe transaction.",
        "params": {
          "dx": "New proxy contract address for DutchX."
        }
      },
      "changeMasterCopy(address)": {
        "details": "Allows to upgrade the contract. This can only be done via a Safe transaction.",
        "params": {
          "_masterCopy": "New contract address."
        }
      },
      "executeWhitelisted(address,uint256,bytes)": {
        "details": "Returns if Safe transaction is to DutchX contract and with whitelisted tokens.",
        "params": {
          "data": "Allowed operations (postSellOrder, postBuyOrder, claimTokensFromSeveralAuctionsAsBuyer, claimTokensFromSeveralAuctionsAsSeller, deposit).",
          "to": "Dutch X address or Whitelisted token (only for approve operations for DX).",
          "value": "Not checked."
        },
        "return": "Returns if transaction can be executed."
      },
      "removeFromWhitelist(address)": {
        "details": "Allows to remove token from whitelist. This can only be done via a Safe transaction.",
        "params": {
          "token": "ERC20 token address."
        }
      },
      "removeOperator(address)": {
        "details": "Allows to remove operator from whitelist. This can only be done via a Safe transaction.",
        "params": {
          "operator": "ethereum address."
        }
      },
      "setup(address,address[],address[])": {
        "details": "Setup function sets initial storage of contract.",
        "params": {
          "dx": "DutchX Proxy Address.",
          "tokens": "List of whitelisted tokens."
        }
      }
    },
    "title": "DutchX Module - Allows to execute transactions to DutchX contract for whitelisted token pairs without confirmations and deposit tokens in the DutchX."
  },
  "userdoc": {
    "methods": {}
  }
}