{"contractName":"MasterCopy","abi":[{"constant":false,"inputs":[{"name":"_masterCopy","type":"address"}],"name":"changeMasterCopy","outputs":[],"payable":false,"stateMutability":"nonpayable","type":"function"}],"bytecode":"0x608060405234801561001057600080fd5b5061029a806100206000396000f3fe608060405260043610610041576000357c0100000000000000000000000000000000000000000000000000000000900463ffffffff1680637de7edef14610046575b600080fd5b34801561005257600080fd5b506100956004803603602081101561006957600080fd5b81019080803573ffffffffffffffffffffffffffffffffffffffff169060200190929190505050610097565b005b3073ffffffffffffffffffffffffffffffffffffffff163373ffffffffffffffffffffffffffffffffffffffff16141515610160576040517f08c379a000000000000000000000000000000000000000000000000000000000815260040180806020018281038252602c8152602001807f4d6574686f642063616e206f6e6c792062652063616c6c65642066726f6d207481526020017f68697320636f6e7472616374000000000000000000000000000000000000000081525060400191505060405180910390fd5b600073ffffffffffffffffffffffffffffffffffffffff168173ffffffffffffffffffffffffffffffffffffffff161415151561022b576040517f08c379a00000000000000000000000000000000000000000000000000000000081526004018080602001828103825260248152602001807f496e76616c6964206d617374657220636f707920616464726573732070726f7681526020017f696465640000000000000000000000000000000000000000000000000000000081525060400191505060405180910390fd5b806000806101000a81548173ffffffffffffffffffffffffffffffffffffffff021916908373ffffffffffffffffffffffffffffffffffffffff1602179055505056fea165627a7a723058200b3460ea3b760503abca69a44b206cd66c604250f9f0c0c41a6c06557bf28ab60029","source":"pragma solidity ^0.5.0;\nimport \"./SelfAuthorized.sol\";\n\n\n/// @title MasterCopy - Base for master copy contracts (should always be first super contract)\n/// @author Richard Meissner - <richard@gnosis.pm>\ncontract MasterCopy is SelfAuthorized {\n  // masterCopy always needs to be first declared variable, to ensure that it is at the same location as in the Proxy contract.\n  // It should also always be ensured that the address is stored alone (uses a full word)\n    address masterCopy;\n\n  /// @dev Allows to upgrade the contract. This can only be done via a Safe transaction.\n  /// @param _masterCopy New contract address.\n    function changeMasterCopy(address _masterCopy)\n        public\n        authorized\n    {\n        // Master copy address cannot be null.\n        require(_masterCopy != address(0), \"Invalid master copy address provided\");\n        masterCopy = _masterCopy;\n    }\n}\n","compiler":{"name":"solc","version":"0.5.0+commit.1d4f565a.Emscripten.clang"},"schemaVersion":"2.0.2","updatedAt":"2019-03-07T10:42:57.063Z"}