{
  "contractName": "MockContract",
  "abi": [
    {
      "constant": true,
      "inputs": [],
      "name": "MOCKS_LIST_END_HASH",
      "outputs": [
        {
          "name": "",
          "type": "bytes32"
        }
      ],
      "payable": false,
      "stateMutability": "view",
      "type": "function"
    },
    {
      "constant": true,
      "inputs": [],
      "name": "MOCKS_LIST_START",
      "outputs": [
        {
          "name": "",
          "type": "bytes32"
        }
      ],
      "payable": false,
      "stateMutability": "view",
      "type": "function"
    },
    {
      "constant": true,
      "inputs": [],
      "name": "MOCKS_LIST_END",
      "outputs": [
        {
          "name": "",
          "type": "bytes"
        }
      ],
      "payable": false,
      "stateMutability": "view",
      "type": "function"
    },
    {
      "constant": true,
      "inputs": [],
      "name": "SENTINEL_ANY_MOCKS",
      "outputs": [
        {
          "name": "",
          "type": "bytes4"
        }
      ],
      "payable": false,
      "stateMutability": "view",
      "type": "function"
    },
    {
      "inputs": [],
      "payable": false,
      "stateMutability": "nonpayable",
      "type": "constructor"
    },
    {
      "payable": true,
      "stateMutability": "payable",
      "type": "fallback"
    },
    {
      "constant": false,
      "inputs": [
        {
          "name": "response",
          "type": "bytes"
        }
      ],
      "name": "givenAnyReturn",
      "outputs": [],
      "payable": false,
      "stateMutability": "nonpayable",
      "type": "function"
    },
    {
      "constant": false,
      "inputs": [
        {
          "name": "response",
          "type": "bool"
        }
      ],
      "name": "givenAnyReturnBool",
      "outputs": [],
      "payable": false,
      "stateMutability": "nonpayable",
      "type": "function"
    },
    {
      "constant": false,
      "inputs": [
        {
          "name": "response",
          "type": "uint256"
        }
      ],
      "name": "givenAnyReturnUint",
      "outputs": [],
      "payable": false,
      "stateMutability": "nonpayable",
      "type": "function"
    },
    {
      "constant": false,
      "inputs": [
        {
          "name": "response",
          "type": "address"
        }
      ],
      "name": "givenAnyReturnAddress",
      "outputs": [],
      "payable": false,
      "stateMutability": "nonpayable",
      "type": "function"
    },
    {
      "constant": false,
      "inputs": [],
      "name": "givenAnyRevert",
      "outputs": [],
      "payable": false,
      "stateMutability": "nonpayable",
      "type": "function"
    },
    {
      "constant": false,
      "inputs": [
        {
          "name": "message",
          "type": "string"
        }
      ],
      "name": "givenAnyRevertWithMessage",
      "outputs": [],
      "payable": false,
      "stateMutability": "nonpayable",
      "type": "function"
    },
    {
      "constant": false,
      "inputs": [],
      "name": "givenAnyRunOutOfGas",
      "outputs": [],
      "payable": false,
      "stateMutability": "nonpayable",
      "type": "function"
    },
    {
      "constant": false,
      "inputs": [
        {
          "name": "call",
          "type": "bytes"
        },
        {
          "name": "response",
          "type": "bytes"
        }
      ],
      "name": "givenCalldataReturn",
      "outputs": [],
      "payable": false,
      "stateMutability": "nonpayable",
      "type": "function"
    },
    {
      "constant": false,
      "inputs": [
        {
          "name": "call",
          "type": "bytes"
        },
        {
          "name": "response",
          "type": "bool"
        }
      ],
      "name": "givenCalldataReturnBool",
      "outputs": [],
      "payable": false,
      "stateMutability": "nonpayable",
      "type": "function"
    },
    {
      "constant": false,
      "inputs": [
        {
          "name": "call",
          "type": "bytes"
        },
        {
          "name": "response",
          "type": "uint256"
        }
      ],
      "name": "givenCalldataReturnUint",
      "outputs": [],
      "payable": false,
      "stateMutability": "nonpayable",
      "type": "function"
    },
    {
      "constant": false,
      "inputs": [
        {
          "name": "call",
          "type": "bytes"
        },
        {
          "name": "response",
          "type": "address"
        }
      ],
      "name": "givenCalldataReturnAddress",
      "outputs": [],
      "payable": false,
      "stateMutability": "nonpayable",
      "type": "function"
    },
    {
      "constant": false,
      "inputs": [
        {
          "name": "call",
          "type": "bytes"
        },
        {
          "name": "response",
          "type": "bytes"
        }
      ],
      "name": "givenMethodReturn",
      "outputs": [],
      "payable": false,
      "stateMutability": "nonpayable",
      "type": "function"
    },
    {
      "constant": false,
      "inputs": [
        {
          "name": "call",
          "type": "bytes"
        },
        {
          "name": "response",
          "type": "bool"
        }
      ],
      "name": "givenMethodReturnBool",
      "outputs": [],
      "payable": false,
      "stateMutability": "nonpayable",
      "type": "function"
    },
    {
      "constant": false,
      "inputs": [
        {
          "name": "call",
          "type": "bytes"
        },
        {
          "name": "response",
          "type": "uint256"
        }
      ],
      "name": "givenMethodReturnUint",
      "outputs": [],
      "payable": false,
      "stateMutability": "nonpayable",
      "type": "function"
    },
    {
      "constant": false,
      "inputs": [
        {
          "name": "call",
          "type": "bytes"
        },
        {
          "name": "response",
          "type": "address"
        }
      ],
      "name": "givenMethodReturnAddress",
      "outputs": [],
      "payable": false,
      "stateMutability": "nonpayable",
      "type": "function"
    },
    {
      "constant": false,
      "inputs": [
        {
          "name": "call",
          "type": "bytes"
        }
      ],
      "name": "givenCalldataRevert",
      "outputs": [],
      "payable": false,
      "stateMutability": "nonpayable",
      "type": "function"
    },
    {
      "constant": false,
      "inputs": [
        {
          "name": "call",
          "type": "bytes"
        }
      ],
      "name": "givenMethodRevert",
      "outputs": [],
      "payable": false,
      "stateMutability": "nonpayable",
      "type": "function"
    },
    {
      "constant": false,
      "inputs": [
        {
          "name": "call",
          "type": "bytes"
        },
        {
          "name": "message",
          "type": "string"
        }
      ],
      "name": "givenCalldataRevertWithMessage",
      "outputs": [],
      "payable": false,
      "stateMutability": "nonpayable",
      "type": "function"
    },
    {
      "constant": false,
      "inputs": [
        {
          "name": "call",
          "type": "bytes"
        },
        {
          "name": "message",
          "type": "string"
        }
      ],
      "name": "givenMethodRevertWithMessage",
      "outputs": [],
      "payable": false,
      "stateMutability": "nonpayable",
      "type": "function"
    },
    {
      "constant": false,
      "inputs": [
        {
          "name": "call",
          "type": "bytes"
        }
      ],
      "name": "givenCalldataRunOutOfGas",
      "outputs": [],
      "payable": false,
      "stateMutability": "nonpayable",
      "type": "function"
    },
    {
      "constant": false,
      "inputs": [
        {
          "name": "call",
          "type": "bytes"
        }
      ],
      "name": "givenMethodRunOutOfGas",
      "outputs": [],
      "payable": false,
      "stateMutability": "nonpayable",
      "type": "function"
    },
    {
      "constant": false,
      "inputs": [],
      "name": "invocationCount",
      "outputs": [
        {
          "name": "",
          "type": "uint256"
        }
      ],
      "payable": false,
      "stateMutability": "nonpayable",
      "type": "function"
    },
    {
      "constant": false,
      "inputs": [
        {
          "name": "call",
          "type": "bytes"
        }
      ],
      "name": "invocationCountForMethod",
      "outputs": [
        {
          "name": "",
          "type": "uint256"
        }
      ],
      "payable": false,
      "stateMutability": "nonpayable",
      "type": "function"
    },
    {
      "constant": false,
      "inputs": [
        {
          "name": "call",
          "type": "bytes"
        }
      ],
      "name": "invocationCountForCalldata",
      "outputs": [
        {
          "name": "",
          "type": "uint256"
        }
      ],
      "payable": false,
      "stateMutability": "nonpayable",
      "type": "function"
    },
    {
      "constant": false,
      "inputs": [],
      "name": "reset",
      "outputs": [],
      "payable": false,
      "stateMutability": "nonpayable",
      "type": "function"
    }
  ],
  "bytecode": "0x60806040523480156200001157600080fd5b506040805190810160405280600481526020017f30786666000000000000000000000000000000000000000000000000000000008152506000807f0100000000000000000000000000000000000000000000000000000000000000815260200190815260200160002090805190602001906200008f92919062000160565b507f0100000000000000000000000000000000000000000000000000000000000000600560007f01000000000000000000000000000000000000000000000000000000000000007bffffffffffffffffffffffffffffffffffffffffffffffffffffffff19167bffffffffffffffffffffffffffffffffffffffffffffffffffffffff1916815260200190815260200160002060006101000a81548163ffffffff02191690837c0100000000000000000000000000000000000000000000000000000000900402179055506200020f565b828054600181600116156101000203166002900490600052602060002090601f016020900481019282601f10620001a357805160ff1916838001178555620001d4565b82800160010185558215620001d4579182015b82811115620001d3578251825591602001919060010190620001b6565b5b509050620001e39190620001e7565b5090565b6200020c91905b8082111562000208576000816000905550600101620001ee565b5090565b90565b61377a806200021f6000396000f3fe608060405260043610610175576000357c0100000000000000000000000000000000000000000000000000000000900463ffffffff1680630a20119f146109af57806321fed4d6146109da5780632ed238dc14610a6057806336ff0ee514610a8b5780633956dc6b14610ac85780634937c4f614610adf578063586984a414610b795780635a3855ab14610c135780636193659414610ca557806367aad04a14610d80578063682b479714610dab57806368ab6f2f14610dfc5780636f40075614610e825780637cd96ee414610f1457806387abab6514610fa45780639a1dc86b1461102a5780639eaeed7514611105578063aa788c55146111e0578063af21ac7814611266578063b3901f29146112a1578063c6ee167f14611347578063cf11ff5d14611422578063d6fe9778146114c8578063d73ca0ac1461154e578063d826f88f146115de578063e211b8a5146115f5578063eb861f691461160c578063f07da22914611692578063f5afa9c1146116fb575b6000803590506001600281111561018857fe5b6001600036604051808383808284378083019250505092505050908152602001604051809103902060009054906101000a900460ff1660028111156101c957fe5b14156102b557600360003660405180838380828437808301925050509250505090815260200160405180910390206040517f08c379a000000000000000000000000000000000000000000000000000000000815260040180806020018281038252838181546001816001161561010002031660029004815260200191508054600181600116156101000203166002900480156102a65780601f1061027b576101008083540402835291602001916102a6565b820191906000526020600020905b81548152906001019060200180831161028957829003601f168201915b50509250505060405180910390fd5b6002808111156102c157fe5b6001600036604051808383808284378083019250505092505050908152602001604051809103902060009054906101000a900460ff16600281111561030257fe5b14156103115761031061178b565b5b6060600260003660405180838380828437808301925050509250505090815260200160405180910390208054600181600116156101000203166002900480601f0160208091040260200160405190810160405280929190818152602001828054600181600116156101000203166002900480156103cf5780601f106103a4576101008083540402835291602001916103cf565b820191906000526020600020905b8154815290600101906020018083116103b257829003601f168201915b505050505090506000815114156106de57600160028111156103ed57fe5b60066000847bffffffffffffffffffffffffffffffffffffffffffffffffffffffff19167bffffffffffffffffffffffffffffffffffffffffffffffffffffffff1916815260200190815260200160002060009054906101000a900460ff16600281111561045757fe5b141561056c5760086000837bffffffffffffffffffffffffffffffffffffffffffffffffffffffff19167bffffffffffffffffffffffffffffffffffffffffffffffffffffffff191681526020019081526020016000206040517f08c379a0000000000000000000000000000000000000000000000000000000008152600401808060200182810382528381815460018160011615610100020316600290048152602001915080546001816001161561010002031660029004801561055d5780601f106105325761010080835404028352916020019161055d565b820191906000526020600020905b81548152906001019060200180831161054057829003601f168201915b50509250505060405180910390fd5b60028081111561057857fe5b60066000847bffffffffffffffffffffffffffffffffffffffffffffffffffffffff19167bffffffffffffffffffffffffffffffffffffffffffffffffffffffff1916815260200190815260200160002060009054906101000a900460ff1660028111156105e257fe5b14156105f1576105f061178b565b5b60076000837bffffffffffffffffffffffffffffffffffffffffffffffffffffffff19167bffffffffffffffffffffffffffffffffffffffffffffffffffffffff191681526020019081526020016000208054600181600116156101000203166002900480601f0160208091040260200160405190810160405280929190818152602001828054600181600116156101000203166002900480156106d65780601f106106ab576101008083540402835291602001916106d6565b820191906000526020600020905b8154815290600101906020018083116106b957829003601f168201915b505050505090505b6000815114156108aa57600160028111156106f557fe5b600a60009054906101000a900460ff16600281111561071057fe5b14156107d657600c6040517f08c379a000000000000000000000000000000000000000000000000000000000815260040180806020018281038252838181546001816001161561010002031660029004815260200191508054600181600116156101000203166002900480156107c75780601f1061079c576101008083540402835291602001916107c7565b820191906000526020600020905b8154815290600101906020018083116107aa57829003601f168201915b50509250505060405180910390fd5b6002808111156107e257fe5b600a60009054906101000a900460ff1660028111156107fd57fe5b141561080c5761080b61178b565b5b600b8054600181600116156101000203166002900480601f0160208091040260200160405190810160405280929190818152602001828054600181600116156101000203166002900480156108a25780601f10610877576101008083540402835291602001916108a2565b820191906000526020600020905b81548152906001019060200180831161088557829003601f168201915b505050505090505b6001600d60008282540192505081905550600160096000600e548560405160200180838152602001827bffffffffffffffffffffffffffffffffffffffffffffffffffffffff19167bffffffffffffffffffffffffffffffffffffffffffffffffffffffff191681526004019250505060405160208183030381529060405280519060200120815260200190815260200160002060008282540192505081905550600160046000600e546000366040516020018084815260200183838082843780830192505050935050505060405160208183030381529060405280519060200120815260200190815260200160002060008282540192505081905550805181602001f35b3480156109bb57600080fd5b506109c46117b0565b6040518082815260200191505060405180910390f35b3480156109e657600080fd5b50610a5e600480360360208110156109fd57600080fd5b8101908080359060200190640100000000811115610a1a57600080fd5b820183602082011115610a2c57600080fd5b80359060200191846001830284011164010000000083111715610a4e57600080fd5b90919293919293905050506117ba565b005b348015610a6c57600080fd5b50610a75611854565b6040518082815260200191505060405180910390f35b348015610a9757600080fd5b50610ac660048036036020811015610aae57600080fd5b810190808035151590602001909291905050506118ef565b005b348015610ad457600080fd5b50610add61191a565b005b348015610aeb57600080fd5b50610b6360048036036020811015610b0257600080fd5b8101908080359060200190640100000000811115610b1f57600080fd5b820183602082011115610b3157600080fd5b80359060200191846001830284011164010000000083111715610b5357600080fd5b9091929391929390505050611940565b6040518082815260200191505060405180910390f35b348015610b8557600080fd5b50610bfd60048036036020811015610b9c57600080fd5b8101908080359060200190640100000000811115610bb957600080fd5b820183602082011115610bcb57600080fd5b80359060200191846001830284011164010000000083111715610bed57600080fd5b9091929391929390505050611a1d565b6040518082815260200191505060405180910390f35b348015610c1f57600080fd5b50610ca360048036036040811015610c3657600080fd5b8101908080359060200190640100000000811115610c5357600080fd5b820183602082011115610c6557600080fd5b80359060200191846001830284011164010000000083111715610c8757600080fd5b9091929391929390803515159060200190929190505050611a74565b005b348015610cb157600080fd5b50610d7e60048036036040811015610cc857600080fd5b8101908080359060200190640100000000811115610ce557600080fd5b820183602082011115610cf757600080fd5b80359060200191846001830284011164010000000083111715610d1957600080fd5b909192939192939080359060200190640100000000811115610d3a57600080fd5b820183602082011115610d4c57600080fd5b80359060200191846001830284011164010000000083111715610d6e57600080fd5b9091929391929390505050611ae6565b005b348015610d8c57600080fd5b50610d95611b7e565b6040518082815260200191505060405180910390f35b348015610db757600080fd5b50610dfa60048036036020811015610dce57600080fd5b81019080803573ffffffffffffffffffffffffffffffffffffffff169060200190929190505050611ba2565b005b348015610e0857600080fd5b50610e8060048036036020811015610e1f57600080fd5b8101908080359060200190640100000000811115610e3c57600080fd5b820183602082011115610e4e57600080fd5b80359060200191846001830284011164010000000083111715610e7057600080fd5b9091929391929390505050611bb6565b005b348015610e8e57600080fd5b50610f1260048036036040811015610ea557600080fd5b8101908080359060200190640100000000811115610ec257600080fd5b820183602082011115610ed457600080fd5b80359060200191846001830284011164010000000083111715610ef657600080fd5b9091929391929390803515159060200190929190505050611c88565b005b348015610f2057600080fd5b50610f29611cfa565b6040518080602001828103825283818151815260200191508051906020019080838360005b83811015610f69578082015181840152602081019050610f4e565b50505050905090810190601f168015610f965780820380516001836020036101000a031916815260200191505b509250505060405180910390f35b348015610fb057600080fd5b5061102860048036036020811015610fc757600080fd5b8101908080359060200190640100000000811115610fe457600080fd5b820183602082011115610ff657600080fd5b8035906020019184600183028401116401000000008311171561101857600080fd5b9091929391929390505050611d33565b005b34801561103657600080fd5b506111036004803603604081101561104d57600080fd5b810190808035906020019064010000000081111561106a57600080fd5b82018360208201111561107c57600080fd5b8035906020019184600183028401116401000000008311171561109e57600080fd5b9091929391929390803590602001906401000000008111156110bf57600080fd5b8201836020820111156110d157600080fd5b803590602001918460018302840111640100000000831117156110f357600080fd5b9091929391929390505050611d6d565b005b34801561111157600080fd5b506111de6004803603604081101561112857600080fd5b810190808035906020019064010000000081111561114557600080fd5b82018360208201111561115757600080fd5b8035906020019184600183028401116401000000008311171561117957600080fd5b90919293919293908035906020019064010000000081111561119a57600080fd5b8201836020820111156111ac57600080fd5b803590602001918460018302840111640100000000831117156111ce57600080fd5b9091929391929390505050611ea2565b005b3480156111ec57600080fd5b506112646004803603602081101561120357600080fd5b810190808035906020019064010000000081111561122057600080fd5b82018360208201111561123257600080fd5b8035906020019184600183028401116401000000008311171561125457600080fd5b9091929391929390505050611f74565b005b34801561127257600080fd5b5061129f6004803603602081101561128957600080fd5b8101908080359060200190929190505050612046565b005b3480156112ad57600080fd5b50611345600480360360408110156112c457600080fd5b81019080803590602001906401000000008111156112e157600080fd5b8201836020820111156112f357600080fd5b8035906020019184600183028401116401000000008311171561131557600080fd5b9091929391929390803573ffffffffffffffffffffffffffffffffffffffff16906020019092919050505061205a565b005b34801561135357600080fd5b506114206004803603604081101561136a57600080fd5b810190808035906020019064010000000081111561138757600080fd5b82018360208201111561139957600080fd5b803590602001918460018302840111640100000000831117156113bb57600080fd5b9091929391929390803590602001906401000000008111156113dc57600080fd5b8201836020820111156113ee57600080fd5b8035906020019184600183028401116401000000008311171561141057600080fd5b90919293919293905050506120b5565b005b34801561142e57600080fd5b506114c66004803603604081101561144557600080fd5b810190808035906020019064010000000081111561146257600080fd5b82018360208201111561147457600080fd5b8035906020019184600183028401116401000000008311171561149657600080fd5b9091929391929390803573ffffffffffffffffffffffffffffffffffffffff16906020019092919050505061214d565b005b3480156114d457600080fd5b5061154c600480360360208110156114eb57600080fd5b810190808035906020019064010000000081111561150857600080fd5b82018360208201111561151a57600080fd5b8035906020019184600183028401116401000000008311171561153c57600080fd5b90919293919293905050506121a8565b005b34801561155a57600080fd5b506115dc6004803603604081101561157157600080fd5b810190808035906020019064010000000081111561158e57600080fd5b8201836020820111156115a057600080fd5b803590602001918460018302840111640100000000831117156115c257600080fd5b9091929391929390803590602001909291905050506121f9565b005b3480156115ea57600080fd5b506115f3612254565b005b34801561160157600080fd5b5061160a612bb7565b005b34801561161857600080fd5b506116906004803603602081101561162f57600080fd5b810190808035906020019064010000000081111561164c57600080fd5b82018360208201111561165e57600080fd5b8035906020019184600183028401116401000000008311171561168057600080fd5b9091929391929390505050612c04565b005b34801561169e57600080fd5b506116a7612ce9565b60405180827bffffffffffffffffffffffffffffffffffffffffffffffffffffffff19167bffffffffffffffffffffffffffffffffffffffffffffffffffffffff1916815260200191505060405180910390f35b34801561170757600080fd5b506117896004803603604081101561171e57600080fd5b810190808035906020019064010000000081111561173b57600080fd5b82018360208201111561174d57600080fd5b8035906020019184600183028401116401000000008311171561176f57600080fd5b909192939192939080359060200190929190505050612d0d565b005b5b6001156117ae5760006060600060c060008060066107d05a03f190505061178c565b565b6000600d54905090565b600260018383604051808383808284378083019250505092505050908152602001604051809103902060006101000a81548160ff021916908360028111156117fe57fe5b021790555061185082828080601f016020809104026020016040519081016040528093929190818152602001838380828437600081840152601f19601f82011690508083019250505050505050612d68565b5050565b6040805190810160405280600481526020017f30786666000000000000000000000000000000000000000000000000000000008152506040518082805190602001908083835b6020831015156118bf578051825260208201915060208101905060208303925061189a565b6001836020036101000a038019825116818451168082178552505050505050905001915050604051809103902081565b6000816118fd576000611900565b60015b60ff16905061191661191182612e53565b612e97565b5050565b6002600a60006101000a81548160ff0219169083600281111561193957fe5b0217905550565b60008061199084848080601f016020809104026020016040519081016040528093929190818152602001838380828437600081840152601f19601f82011690508083019250505050505050612ed5565b905060096000600e548360405160200180838152602001827bffffffffffffffffffffffffffffffffffffffffffffffffffffffff19167bffffffffffffffffffffffffffffffffffffffffffffffffffffffff19168152600401925050506040516020818303038152906040528051906020012081526020019081526020016000205491505092915050565b600060046000600e5485856040516020018084815260200183838082843780830192505050935050505060405160208183030381529060405280519060200120815260200190815260200160002054905092915050565b600081611a82576000611a85565b60015b60ff169050611ae084848080601f016020809104026020016040519081016040528093929190818152602001838380828437600081840152601f19601f82011690508083019250505050505050611adb83612e53565b612fcf565b50505050565b611b7884848080601f016020809104026020016040519081016040528093929190818152602001838380828437600081840152601f19601f8201169050808301925050505050505083838080601f016020809104026020016040519081016040528093929190818152602001838380828437600081840152601f19601f82011690508083019250505050505050612fcf565b50505050565b7f010000000000000000000000000000000000000000000000000000000000000081565b611bb3611bae826130e9565b612e97565b50565b6000611c0583838080601f016020809104026020016040519081016040528093929190818152602001838380828437600081840152601f19601f82011690508083019250505050505050612ed5565b9050600260066000837bffffffffffffffffffffffffffffffffffffffffffffffffffffffff19167bffffffffffffffffffffffffffffffffffffffffffffffffffffffff1916815260200190815260200160002060006101000a81548160ff02191690836002811115611c7557fe5b0217905550611c838161311b565b505050565b600081611c96576000611c99565b60015b60ff169050611cf484848080601f016020809104026020016040519081016040528093929190818152602001838380828437600081840152601f19601f82011690508083019250505050505050611cef83612e53565b6133ae565b50505050565b6040805190810160405280600481526020017f307866660000000000000000000000000000000000000000000000000000000081525081565b6001600a60006101000a81548160ff02191690836002811115611d5257fe5b02179055508181600c9190611d689291906134a2565b505050565b6000611dbc85858080601f016020809104026020016040519081016040528093929190818152602001838380828437600081840152601f19601f82011690508083019250505050505050612ed5565b9050600160066000837bffffffffffffffffffffffffffffffffffffffffffffffffffffffff19167bffffffffffffffffffffffffffffffffffffffffffffffffffffffff1916815260200190815260200160002060006101000a81548160ff02191690836002811115611e2c57fe5b0217905550828260086000847bffffffffffffffffffffffffffffffffffffffffffffffffffffffff19167bffffffffffffffffffffffffffffffffffffffffffffffffffffffff191681526020019081526020016000209190611e919291906134a2565b50611e9b8161311b565b5050505050565b6001808585604051808383808284378083019250505092505050908152602001604051809103902060006101000a81548160ff02191690836002811115611ee557fe5b021790555081816003868660405180838380828437808301925050509250505090815260200160405180910390209190611f209291906134a2565b50611f6e84848080601f016020809104026020016040519081016040528093929190818152602001838380828437600081840152601f19601f82011690508083019250505050505050612d68565b50505050565b6000611fc383838080601f016020809104026020016040519081016040528093929190818152602001838380828437600081840152601f19601f82011690508083019250505050505050612ed5565b9050600160066000837bffffffffffffffffffffffffffffffffffffffffffffffffffffffff19167bffffffffffffffffffffffffffffffffffffffffffffffffffffffff1916815260200190815260200160002060006101000a81548160ff0219169083600281111561203357fe5b02179055506120418161311b565b505050565b61205761205282612e53565b612e97565b50565b6120b083838080601f016020809104026020016040519081016040528093929190818152602001838380828437600081840152601f19601f820116905080830192505050505050506120ab836130e9565b612fcf565b505050565b61214784848080601f016020809104026020016040519081016040528093929190818152602001838380828437600081840152601f19601f8201169050808301925050505050505083838080601f016020809104026020016040519081016040528093929190818152602001838380828437600081840152601f19601f820116905080830192505050505050506133ae565b50505050565b6121a383838080601f016020809104026020016040519081016040528093929190818152602001838380828437600081840152601f19601f8201169050808301925050505050505061219e836130e9565b6133ae565b505050565b6121f582828080601f016020809104026020016040519081016040528093929190818152602001838380828437600081840152601f19601f82011690508083019250505050505050612e97565b5050565b61224f83838080601f016020809104026020016040519081016040528093929190818152602001838380828437600081840152601f19601f8201169050808301925050505050505061224a83612e53565b612fcf565b505050565b60606000807f010000000000000000000000000000000000000000000000000000000000000081526020019081526020016000208054600181600116156101000203166002900480601f01602080910402602001604051908101604052809291908181526020018280546001816001161561010002031660029004801561231c5780601f106122f15761010080835404028352916020019161231c565b820191906000526020600020905b8154815290600101906020018083116122ff57829003601f168201915b505050505090506000818051906020012090505b6040805190810160405280600481526020017f30786666000000000000000000000000000000000000000000000000000000008152506040518082805190602001908083835b60208310151561239b5780518252602082019150602081019050602083039250612376565b6001836020036101000a0380198251168184511680821785525050505050509050019150506040518091039020811415156126705760006001836040518082805190602001908083835b60208310151561240a57805182526020820191506020810190506020830392506123e5565b6001836020036101000a038019825116818451168082178552505050505050905001915050908152602001604051809103902060006101000a81548160ff0219169083600281111561245857fe5b021790555060206040519081016040528060008152506002836040518082805190602001908083835b6020831015156124a65780518252602082019150602081019050602083039250612481565b6001836020036101000a038019825116818451168082178552505050505050905001915050908152602001604051809103902090805190602001906124ec929190613522565b5060206040519081016040528060008152506003836040518082805190602001908083835b6020831015156125365780518252602082019150602081019050602083039250612511565b6001836020036101000a0380198251168184511680821785525050505050509050019150509081526020016040518091039020908051906020019061257c9291906135a2565b506000808281526020019081526020016000208054600181600116156101000203166002900480601f0160208091040260200160405190810160405280929190818152602001828054600181600116156101000203166002900480156126235780601f106125f857610100808354040283529160200191612623565b820191906000526020600020905b81548152906001019060200180831161260657829003601f168201915b5050505050915060206040519081016040528060008152506000808381526020019081526020016000209080519060200190612660929190613522565b5081805190602001209050612330565b6040805190810160405280600481526020017f30786666000000000000000000000000000000000000000000000000000000008152506000807f0100000000000000000000000000000000000000000000000000000000000000815260200190815260200160002090805190602001906126eb929190613622565b506000600560007f01000000000000000000000000000000000000000000000000000000000000007bffffffffffffffffffffffffffffffffffffffffffffffffffffffff19167bffffffffffffffffffffffffffffffffffffffffffffffffffffffff1916815260200190815260200160002060009054906101000a90047c01000000000000000000000000000000000000000000000000000000000290505b7f01000000000000000000000000000000000000000000000000000000000000007bffffffffffffffffffffffffffffffffffffffffffffffffffffffff1916817bffffffffffffffffffffffffffffffffffffffffffffffffffffffff1916141515612a84576000819050600060066000837bffffffffffffffffffffffffffffffffffffffffffffffffffffffff19167bffffffffffffffffffffffffffffffffffffffffffffffffffffffff1916815260200190815260200160002060006101000a81548160ff0219169083600281111561286657fe5b0217905550602060405190810160405280600081525060076000837bffffffffffffffffffffffffffffffffffffffffffffffffffffffff19167bffffffffffffffffffffffffffffffffffffffffffffffffffffffff1916815260200190815260200160002090805190602001906128e0929190613522565b50602060405190810160405280600081525060086000837bffffffffffffffffffffffffffffffffffffffffffffffffffffffff19167bffffffffffffffffffffffffffffffffffffffffffffffffffffffff1916815260200190815260200160002090805190602001906129569291906135a2565b5060056000827bffffffffffffffffffffffffffffffffffffffffffffffffffffffff19167bffffffffffffffffffffffffffffffffffffffffffffffffffffffff1916815260200190815260200160002060009054906101000a90047c010000000000000000000000000000000000000000000000000000000002915060007c01000000000000000000000000000000000000000000000000000000000260056000837bffffffffffffffffffffffffffffffffffffffffffffffffffffffff19167bffffffffffffffffffffffffffffffffffffffffffffffffffffffff1916815260200190815260200160002060006101000a81548163ffffffff02191690837c0100000000000000000000000000000000000000000000000000000000900402179055505061278c565b7f0100000000000000000000000000000000000000000000000000000000000000600560007f01000000000000000000000000000000000000000000000000000000000000007bffffffffffffffffffffffffffffffffffffffffffffffffffffffff19167bffffffffffffffffffffffffffffffffffffffffffffffffffffffff1916815260200190815260200160002060006101000a81548163ffffffff02191690837c0100000000000000000000000000000000000000000000000000000000900402179055506020604051908101604052806000815250600b9080519060200190612b74929190613522565b506000600a60006101000a81548160ff02191690836002811115612b9457fe5b02179055506000600d819055506001600e60008282540192505081905550505050565b6001600a60006101000a81548160ff02191690836002811115612bd657fe5b02179055506020604051908101604052806000815250600c9080519060200190612c019291906135a2565b50565b6001808383604051808383808284378083019250505092505050908152602001604051809103902060006101000a81548160ff02191690836002811115612c4757fe5b021790555060206040519081016040528060008152506003838360405180838380828437808301925050509250505090815260200160405180910390209080519060200190612c979291906135a2565b50612ce582828080601f016020809104026020016040519081016040528093929190818152602001838380828437600081840152601f19601f82011690508083019250505050505050612d68565b5050565b7f010000000000000000000000000000000000000000000000000000000000000081565b612d6383838080601f016020809104026020016040519081016040528093929190818152602001838380828437600081840152601f19601f82011690508083019250505050505050612d5e83612e53565b6133ae565b505050565b60008180519060200120905060008060008381526020019081526020016000208054600181600116156101000203166002900490501415612e4f576000807f010000000000000000000000000000000000000000000000000000000000000081526020019081526020016000206000808381526020019081526020016000209080546001816001161561010002031660029004612e069291906136a2565b50816000807f010000000000000000000000000000000000000000000000000000000000000081526020019081526020016000209080519060200190612e4d929190613622565b505b5050565b606060206040519080825280601f01601f191660200182016040528015612e895781602001600182028038833980820191505090505b509050816020820152919050565b6000600a60006101000a81548160ff02191690836002811115612eb657fe5b021790555080600b9080519060200190612ed1929190613622565b5050565b60008060008090505b6004811015612fc5576008810260ff7f0100000000000000000000000000000000000000000000000000000000000000028583815181101515612f1d57fe5b9060200101517f010000000000000000000000000000000000000000000000000000000000000090047f010000000000000000000000000000000000000000000000000000000000000002167effffffffffffffffffffffffffffffffffffffffffffffffffffffffffffff19167bffffffffffffffffffffffffffffffffffffffffffffffffffffffff1916908060020a8204915050821791508080600101915050612ede565b5080915050919050565b60006001836040518082805190602001908083835b6020831015156130095780518252602082019150602081019050602083039250612fe4565b6001836020036101000a038019825116818451168082178552505050505050905001915050908152602001604051809103902060006101000a81548160ff0219169083600281111561305757fe5b0217905550806002836040518082805190602001908083835b6020831015156130955780518252602082019150602081019050602083039250613070565b6001836020036101000a038019825116818451168082178552505050505050905001915050908152602001604051809103902090805190602001906130db929190613622565b506130e582612d68565b5050565b606060405182741400000000000000000000000000000000000000001860148201526034810160405280915050919050565b60007c01000000000000000000000000000000000000000000000000000000000260056000837bffffffffffffffffffffffffffffffffffffffffffffffffffffffff19167bffffffffffffffffffffffffffffffffffffffffffffffffffffffff1916815260200190815260200160002060009054906101000a90047c0100000000000000000000000000000000000000000000000000000000027bffffffffffffffffffffffffffffffffffffffffffffffffffffffff191614156133ab57600560007f01000000000000000000000000000000000000000000000000000000000000007bffffffffffffffffffffffffffffffffffffffffffffffffffffffff19167bffffffffffffffffffffffffffffffffffffffffffffffffffffffff1916815260200190815260200160002060009054906101000a90047c01000000000000000000000000000000000000000000000000000000000260056000837bffffffffffffffffffffffffffffffffffffffffffffffffffffffff19167bffffffffffffffffffffffffffffffffffffffffffffffffffffffff1916815260200190815260200160002060006101000a81548163ffffffff02191690837c01000000000000000000000000000000000000000000000000000000009004021790555080600560007f01000000000000000000000000000000000000000000000000000000000000007bffffffffffffffffffffffffffffffffffffffffffffffffffffffff19167bffffffffffffffffffffffffffffffffffffffffffffffffffffffff1916815260200190815260200160002060006101000a81548163ffffffff02191690837c0100000000000000000000000000000000000000000000000000000000900402179055505b50565b60006133b983612ed5565b9050600060066000837bffffffffffffffffffffffffffffffffffffffffffffffffffffffff19167bffffffffffffffffffffffffffffffffffffffffffffffffffffffff1916815260200190815260200160002060006101000a81548160ff0219169083600281111561342957fe5b02179055508160076000837bffffffffffffffffffffffffffffffffffffffffffffffffffffffff19167bffffffffffffffffffffffffffffffffffffffffffffffffffffffff191681526020019081526020016000209080519060200190613493929190613622565b5061349d8161311b565b505050565b828054600181600116156101000203166002900490600052602060002090601f016020900481019282601f106134e357803560ff1916838001178555613511565b82800160010185558215613511579182015b828111156135105782358255916020019190600101906134f5565b5b50905061351e9190613729565b5090565b828054600181600116156101000203166002900490600052602060002090601f016020900481019282601f1061356357805160ff1916838001178555613591565b82800160010185558215613591579182015b82811115613590578251825591602001919060010190613575565b5b50905061359e9190613729565b5090565b828054600181600116156101000203166002900490600052602060002090601f016020900481019282601f106135e357805160ff1916838001178555613611565b82800160010185558215613611579182015b828111156136105782518255916020019190600101906135f5565b5b50905061361e9190613729565b5090565b828054600181600116156101000203166002900490600052602060002090601f016020900481019282601f1061366357805160ff1916838001178555613691565b82800160010185558215613691579182015b82811115613690578251825591602001919060010190613675565b5b50905061369e9190613729565b5090565b828054600181600116156101000203166002900490600052602060002090601f016020900481019282601f106136db5780548555613718565b8280016001018555821561371857600052602060002091601f016020900482015b828111156137175782548255916001019190600101906136fc565b5b5090506137259190613729565b5090565b61374b91905b8082111561374757600081600090555060010161372f565b5090565b9056fea165627a7a723058207d4a78b76f22fb0937b604df87eb82a5b79c326bf5d6938f71a799ca526d37110029",
  "source": "pragma solidity ^0.5.0;\n\ninterface MockInterface {\n\t/**\n\t * @dev After calling this method, the mock will return `response` when it is called\n\t * with any calldata that is not mocked more specifically below\n\t * (e.g. using givenMethodReturn).\n\t * @param response ABI encoded response that will be returned if method is invoked\n\t */\n\tfunction givenAnyReturn(bytes calldata response) external;\n\tfunction givenAnyReturnBool(bool response) external;\n\tfunction givenAnyReturnUint(uint response) external;\n\tfunction givenAnyReturnAddress(address response) external;\n\n\tfunction givenAnyRevert() external;\n\tfunction givenAnyRevertWithMessage(string calldata message) external;\n\tfunction givenAnyRunOutOfGas() external;\n\n\t/**\n\t * @dev After calling this method, the mock will return `response` when the given\n\t * methodId is called regardless of arguments. If the methodId and arguments\n\t * are mocked more specifically (using `givenMethodAndArguments`) the latter\n\t * will take precedence.\n\t * @param method ABI encoded methodId. It is valid to pass full calldata (including arguments). The mock will extract the methodId from it\n\t * @param response ABI encoded response that will be returned if method is invoked\n\t */\n\tfunction givenMethodReturn(bytes calldata method, bytes calldata response) external;\n\tfunction givenMethodReturnBool(bytes calldata method, bool response) external;\n\tfunction givenMethodReturnUint(bytes calldata method, uint response) external;\n\tfunction givenMethodReturnAddress(bytes calldata method, address response) external;\n\n\tfunction givenMethodRevert(bytes calldata method) external;\n\tfunction givenMethodRevertWithMessage(bytes calldata method, string calldata message) external;\n\tfunction givenMethodRunOutOfGas(bytes calldata method) external;\n\n\t/**\n\t * @dev After calling this method, the mock will return `response` when the given\n\t * methodId is called with matching arguments. These exact calldataMocks will take\n\t * precedence over all other calldataMocks.\n\t * @param call ABI encoded calldata (methodId and arguments)\n\t * @param response ABI encoded response that will be returned if contract is invoked with calldata\n\t */\n\tfunction givenCalldataReturn(bytes calldata call, bytes calldata response) external;\n\tfunction givenCalldataReturnBool(bytes calldata call, bool response) external;\n\tfunction givenCalldataReturnUint(bytes calldata call, uint response) external;\n\tfunction givenCalldataReturnAddress(bytes calldata call, address response) external;\n\n\tfunction givenCalldataRevert(bytes calldata data) external;\n\tfunction givenCalldataRevertWithMessage(bytes calldata data, string calldata message) external;\n\tfunction givenCalldataRunOutOfGas(bytes calldata data) external;\n\n\t/**\n\t * @dev Returns the number of times anything has been called on this mock since last reset\n\t */\n\tfunction invocationCount() external returns (uint);\n\n\t/**\n\t * @dev Returns the number of times the given method has been called on this mock since last reset\n\t * @param method ABI encoded methodId. It is valid to pass full calldata (including arguments). The mock will extract the methodId from it\n\t */\n\tfunction invocationCountForMethod(bytes calldata method) external returns (uint);\n\n\t/**\n\t * @dev Returns the number of times this mock has been called with the exact calldata since last reset.\n\t * @param call ABI encoded calldata (methodId and arguments)\n\t */\n\tfunction invocationCountForCalldata(bytes calldata call) external returns (uint);\n\n\t/**\n\t * @dev Resets all mocked methods and invocation counts.\n\t */\n\t function reset() external;\n}\n\n/**\n * Implementation of the MockInterface.\n */\ncontract MockContract is MockInterface {\n\tenum MockType { Return, Revert, OutOfGas }\n\t\n\tbytes32 public constant MOCKS_LIST_START = hex\"01\";\n\tbytes public constant MOCKS_LIST_END = \"0xff\";\n\tbytes32 public constant MOCKS_LIST_END_HASH = keccak256(MOCKS_LIST_END);\n\tbytes4 public constant SENTINEL_ANY_MOCKS = hex\"01\";\n\n\t// A linked list allows easy iteration and inclusion checks\n\tmapping(bytes32 => bytes) calldataMocks;\n\tmapping(bytes => MockType) calldataMockTypes;\n\tmapping(bytes => bytes) calldataExpectations;\n\tmapping(bytes => string) calldataRevertMessage;\n\tmapping(bytes32 => uint) calldataInvocations;\n\n\tmapping(bytes4 => bytes4) methodIdMocks;\n\tmapping(bytes4 => MockType) methodIdMockTypes;\n\tmapping(bytes4 => bytes) methodIdExpectations;\n\tmapping(bytes4 => string) methodIdRevertMessages;\n\tmapping(bytes32 => uint) methodIdInvocations;\n\n\tMockType fallbackMockType;\n\tbytes fallbackExpectation;\n\tstring fallbackRevertMessage;\n\tuint invocations;\n\tuint resetCount;\n\n\tconstructor() public {\n\t\tcalldataMocks[MOCKS_LIST_START] = MOCKS_LIST_END;\n\t\tmethodIdMocks[SENTINEL_ANY_MOCKS] = SENTINEL_ANY_MOCKS;\n\t}\n\n\tfunction trackCalldataMock(bytes memory call) private {\n\t\tbytes32 callHash = keccak256(call);\n\t\tif (calldataMocks[callHash].length == 0) {\n\t\t\tcalldataMocks[callHash] = calldataMocks[MOCKS_LIST_START];\n\t\t\tcalldataMocks[MOCKS_LIST_START] = call;\n\t\t}\n\t}\n\n\tfunction trackMethodIdMock(bytes4 methodId) private {\n\t\tif (methodIdMocks[methodId] == 0x0) {\n\t\t\tmethodIdMocks[methodId] = methodIdMocks[SENTINEL_ANY_MOCKS];\n\t\t\tmethodIdMocks[SENTINEL_ANY_MOCKS] = methodId;\n\t\t}\n\t}\n\n\tfunction _givenAnyReturn(bytes memory response) internal {\n\t\tfallbackMockType = MockType.Return;\n\t\tfallbackExpectation = response;\n\t}\n\n\tfunction givenAnyReturn(bytes calldata response) external {\n\t\t_givenAnyReturn(response);\n\t}\n\n\tfunction givenAnyReturnBool(bool response) external {\n\t\tuint flag = response ? 1 : 0;\n\t\t_givenAnyReturn(uintToBytes(flag));\n\t}\n\n\tfunction givenAnyReturnUint(uint response) external {\n\t\t_givenAnyReturn(uintToBytes(response));\t\n\t}\n\n\tfunction givenAnyReturnAddress(address response) external {\n\t\t_givenAnyReturn(addressToBytes(response));\n\t}\n\n\tfunction givenAnyRevert() external {\n\t\tfallbackMockType = MockType.Revert;\n\t\tfallbackRevertMessage = \"\";\n\t}\n\n\tfunction givenAnyRevertWithMessage(string calldata message) external {\n\t\tfallbackMockType = MockType.Revert;\n\t\tfallbackRevertMessage = message;\n\t}\n\n\tfunction givenAnyRunOutOfGas() external {\n\t\tfallbackMockType = MockType.OutOfGas;\n\t}\n\n\tfunction _givenCalldataReturn(bytes memory call, bytes memory response) private  {\n\t\tcalldataMockTypes[call] = MockType.Return;\n\t\tcalldataExpectations[call] = response;\n\t\ttrackCalldataMock(call);\n\t}\n\n\tfunction givenCalldataReturn(bytes calldata call, bytes calldata response) external  {\n\t\t_givenCalldataReturn(call, response);\n\t}\n\n\tfunction givenCalldataReturnBool(bytes calldata call, bool response) external {\n\t\tuint flag = response ? 1 : 0;\n\t\t_givenCalldataReturn(call, uintToBytes(flag));\n\t}\n\n\tfunction givenCalldataReturnUint(bytes calldata call, uint response) external {\n\t\t_givenCalldataReturn(call, uintToBytes(response));\n\t}\n\n\tfunction givenCalldataReturnAddress(bytes calldata call, address response) external {\n\t\t_givenCalldataReturn(call, addressToBytes(response));\n\t}\n\n\tfunction _givenMethodReturn(bytes memory call, bytes memory response) private {\n\t\tbytes4 method = bytesToBytes4(call);\n\t\tmethodIdMockTypes[method] = MockType.Return;\n\t\tmethodIdExpectations[method] = response;\n\t\ttrackMethodIdMock(method);\t\t\n\t}\n\n\tfunction givenMethodReturn(bytes calldata call, bytes calldata response) external {\n\t\t_givenMethodReturn(call, response);\n\t}\n\n\tfunction givenMethodReturnBool(bytes calldata call, bool response) external {\n\t\tuint flag = response ? 1 : 0;\n\t\t_givenMethodReturn(call, uintToBytes(flag));\n\t}\n\n\tfunction givenMethodReturnUint(bytes calldata call, uint response) external {\n\t\t_givenMethodReturn(call, uintToBytes(response));\n\t}\n\n\tfunction givenMethodReturnAddress(bytes calldata call, address response) external {\n\t\t_givenMethodReturn(call, addressToBytes(response));\n\t}\n\n\tfunction givenCalldataRevert(bytes calldata call) external {\n\t\tcalldataMockTypes[call] = MockType.Revert;\n\t\tcalldataRevertMessage[call] = \"\";\n\t\ttrackCalldataMock(call);\n\t}\n\n\tfunction givenMethodRevert(bytes calldata call) external {\n\t\tbytes4 method = bytesToBytes4(call);\n\t\tmethodIdMockTypes[method] = MockType.Revert;\n\t\ttrackMethodIdMock(method);\t\t\n\t}\n\n\tfunction givenCalldataRevertWithMessage(bytes calldata call, string calldata message) external {\n\t\tcalldataMockTypes[call] = MockType.Revert;\n\t\tcalldataRevertMessage[call] = message;\n\t\ttrackCalldataMock(call);\n\t}\n\n\tfunction givenMethodRevertWithMessage(bytes calldata call, string calldata message) external {\n\t\tbytes4 method = bytesToBytes4(call);\n\t\tmethodIdMockTypes[method] = MockType.Revert;\n\t\tmethodIdRevertMessages[method] = message;\n\t\ttrackMethodIdMock(method);\t\t\n\t}\n\n\tfunction givenCalldataRunOutOfGas(bytes calldata call) external {\n\t\tcalldataMockTypes[call] = MockType.OutOfGas;\n\t\ttrackCalldataMock(call);\n\t}\n\n\tfunction givenMethodRunOutOfGas(bytes calldata call) external {\n\t\tbytes4 method = bytesToBytes4(call);\n\t\tmethodIdMockTypes[method] = MockType.OutOfGas;\n\t\ttrackMethodIdMock(method);\t\n\t}\n\n\tfunction invocationCount() external returns (uint) {\n\t\treturn invocations;\n\t}\n\n\tfunction invocationCountForMethod(bytes calldata call) external returns (uint) {\n\t\tbytes4 method = bytesToBytes4(call);\n\t\treturn methodIdInvocations[keccak256(abi.encodePacked(resetCount, method))];\n\t}\n\n\tfunction invocationCountForCalldata(bytes calldata call) external returns (uint) {\n\t\treturn calldataInvocations[keccak256(abi.encodePacked(resetCount, call))];\n\t}\n\n\tfunction reset() external {\n\t\t// Reset all exact calldataMocks\n\t\tbytes memory nextMock = calldataMocks[MOCKS_LIST_START];\n\t\tbytes32 mockHash = keccak256(nextMock);\n\t\t// We cannot compary bytes\n\t\twhile(mockHash != MOCKS_LIST_END_HASH) {\n\t\t\t// Reset all mock maps\n\t\t\tcalldataMockTypes[nextMock] = MockType.Return;\n\t\t\tcalldataExpectations[nextMock] = hex\"\";\n\t\t\tcalldataRevertMessage[nextMock] = \"\";\n\t\t\t// Set next mock to remove\n\t\t\tnextMock = calldataMocks[mockHash];\n\t\t\t// Remove from linked list\n\t\t\tcalldataMocks[mockHash] = \"\";\n\t\t\t// Update mock hash\n\t\t\tmockHash = keccak256(nextMock);\n\t\t}\n\t\t// Clear list\n\t\tcalldataMocks[MOCKS_LIST_START] = MOCKS_LIST_END;\n\n\t\t// Reset all any calldataMocks\n\t\tbytes4 nextAnyMock = methodIdMocks[SENTINEL_ANY_MOCKS];\n\t\twhile(nextAnyMock != SENTINEL_ANY_MOCKS) {\n\t\t\tbytes4 currentAnyMock = nextAnyMock;\n\t\t\tmethodIdMockTypes[currentAnyMock] = MockType.Return;\n\t\t\tmethodIdExpectations[currentAnyMock] = hex\"\";\n\t\t\tmethodIdRevertMessages[currentAnyMock] = \"\";\n\t\t\tnextAnyMock = methodIdMocks[currentAnyMock];\n\t\t\t// Remove from linked list\n\t\t\tmethodIdMocks[currentAnyMock] = 0x0;\n\t\t}\n\t\t// Clear list\n\t\tmethodIdMocks[SENTINEL_ANY_MOCKS] = SENTINEL_ANY_MOCKS;\n\n\t\tfallbackExpectation = \"\";\n\t\tfallbackMockType = MockType.Return;\n\t\tinvocations = 0;\n\t\tresetCount += 1;\n\t}\n\n\tfunction useAllGas() private {\n\t\twhile(true) {\n\t\t\tbool s;\n\t\t\tassembly {\n\t\t\t\t//expensive call to EC multiply contract\n\t\t\t\ts := call(sub(gas, 2000), 6, 0, 0x0, 0xc0, 0x0, 0x60)\n\t\t\t}\n\t\t}\n\t}\n\n\tfunction bytesToBytes4(bytes memory b) private pure returns (bytes4) {\n  \t\tbytes4 out;\n  \t\tfor (uint i = 0; i < 4; i++) {\n    \t\tout |= bytes4(b[i] & 0xFF) >> (i * 8);\n  \t\t}\n  \t\treturn out;\n\t}\n\n\tfunction addressToBytes(address a) private pure returns (bytes memory b){\n   \t\tassembly {\n        \tlet m := mload(0x40)\n        \tmstore(add(m, 20), xor(0x140000000000000000000000000000000000000000, a))\n        \tmstore(0x40, add(m, 52))\n        \tb := m\n   \t\t}\n\t}\n\n\tfunction uintToBytes(uint256 x) private pure returns (bytes memory b) {\n    \tb = new bytes(32);\n    \tassembly { mstore(add(b, 32), x) }\n\t}\n\n\tfunction() payable external {\n\t\tbytes4 methodId;\n\t\tassembly {\n\t\t\tmethodId := calldataload(0)\n\t\t}\n\n\t\t// First, check exact matching overrides\n\t\tif (calldataMockTypes[msg.data] == MockType.Revert) {\n\t\t\trevert(calldataRevertMessage[msg.data]);\n\t\t}\n\t\tif (calldataMockTypes[msg.data] == MockType.OutOfGas) {\n\t\t\tuseAllGas();\n\t\t}\n\t\tbytes memory result = calldataExpectations[msg.data];\n\n\t\t// Then check method Id overrides\n\t\tif (result.length == 0) {\n\t\t\tif (methodIdMockTypes[methodId] == MockType.Revert) {\n\t\t\t\trevert(methodIdRevertMessages[methodId]);\n\t\t\t}\n\t\t\tif (methodIdMockTypes[methodId] == MockType.OutOfGas) {\n\t\t\t\tuseAllGas();\n\t\t\t}\n\t\t\tresult = methodIdExpectations[methodId];\n\t\t}\n\n\t\t// Last, use the fallback override\n\t\tif (result.length == 0) {\n\t\t\tif (fallbackMockType == MockType.Revert) {\n\t\t\t\trevert(fallbackRevertMessage);\n\t\t\t}\n\t\t\tif (fallbackMockType == MockType.OutOfGas) {\n\t\t\t\tuseAllGas();\n\t\t\t}\n\t\t\tresult = fallbackExpectation;\n\t\t}\n\n\t\t// Record invocation\n\t\tinvocations += 1;\n\t\tmethodIdInvocations[keccak256(abi.encodePacked(resetCount, methodId))] += 1;\n\t\tcalldataInvocations[keccak256(abi.encodePacked(resetCount, msg.data))] += 1;\n\n\t\tassembly {\n\t\t\treturn(add(0x20, result), mload(result))\n\t\t}\n\t}\n}\n",
  "sourcePath": "@gnosis.pm/mock-contract/contracts/MockContract.sol",
  "compiler": {
    "name": "solc",
    "version": "0.5.0+commit.1d4f565a.Emscripten.clang"
  },
  "schemaVersion": "3.0.1",
  "updatedAt": "2019-01-09T10:35:12.978Z",
  "devdoc": {
    "methods": {}
  },
  "userdoc": {
    "methods": {},
    "notice": "Implementation of the MockInterface."
  }
}