{
  "contractName": "ModuleManager",
  "abi": [
    {
      "constant": true,
      "inputs": [],
      "name": "SENTINEL_MODULES",
      "outputs": [
        {
          "name": "",
          "type": "address"
        }
      ],
      "payable": false,
      "stateMutability": "view",
      "type": "function"
    },
    {
      "payable": true,
      "stateMutability": "payable",
      "type": "fallback"
    },
    {
      "anonymous": false,
      "inputs": [
        {
          "indexed": false,
          "name": "module",
          "type": "address"
        }
      ],
      "name": "EnabledModule",
      "type": "event"
    },
    {
      "anonymous": false,
      "inputs": [
        {
          "indexed": false,
          "name": "module",
          "type": "address"
        }
      ],
      "name": "DisabledModule",
      "type": "event"
    },
    {
      "anonymous": false,
      "inputs": [
        {
          "indexed": false,
          "name": "newContract",
          "type": "address"
        }
      ],
      "name": "ContractCreation",
      "type": "event"
    },
    {
      "constant": false,
      "inputs": [
        {
          "name": "module",
          "type": "address"
        }
      ],
      "name": "enableModule",
      "outputs": [],
      "payable": false,
      "stateMutability": "nonpayable",
      "type": "function"
    },
    {
      "constant": false,
      "inputs": [
        {
          "name": "prevModule",
          "type": "address"
        },
        {
          "name": "module",
          "type": "address"
        }
      ],
      "name": "disableModule",
      "outputs": [],
      "payable": false,
      "stateMutability": "nonpayable",
      "type": "function"
    },
    {
      "constant": false,
      "inputs": [
        {
          "name": "to",
          "type": "address"
        },
        {
          "name": "value",
          "type": "uint256"
        },
        {
          "name": "data",
          "type": "bytes"
        },
        {
          "name": "operation",
          "type": "uint8"
        }
      ],
      "name": "execTransactionFromModule",
      "outputs": [
        {
          "name": "success",
          "type": "bool"
        }
      ],
      "payable": false,
      "stateMutability": "nonpayable",
      "type": "function"
    },
    {
      "constant": true,
      "inputs": [],
      "name": "getModules",
      "outputs": [
        {
          "name": "",
          "type": "address[]"
        }
      ],
      "payable": false,
      "stateMutability": "view",
      "type": "function"
    }
  ],
  "bytecode": "0x608060405234801561001057600080fd5b5061116c806100206000396000f3fe60806040526004361061006d576000357c0100000000000000000000000000000000000000000000000000000000900463ffffffff168063468721a71461006f578063610b59251461018657806385e332cd146101d7578063b2494df31461022e578063e009cfde1461029a575b005b34801561007b57600080fd5b5061016c6004803603608081101561009257600080fd5b81019080803573ffffffffffffffffffffffffffffffffffffffff16906020019092919080359060200190929190803590602001906401000000008111156100d957600080fd5b8201836020820111156100eb57600080fd5b8035906020019184600183028401116401000000008311171561010d57600080fd5b91908080601f016020809104026020016040519081016040528093929190818152602001838380828437600081840152601f19601f820116905080830192505050505050509192919290803560ff16906020019092919050505061030b565b604051808215151515815260200191505060405180910390f35b34801561019257600080fd5b506101d5600480360360208110156101a957600080fd5b81019080803573ffffffffffffffffffffffffffffffffffffffff16906020019092919050505061044c565b005b3480156101e357600080fd5b506101ec6108b5565b604051808273ffffffffffffffffffffffffffffffffffffffff1673ffffffffffffffffffffffffffffffffffffffff16815260200191505060405180910390f35b34801561023a57600080fd5b506102436108ba565b6040518080602001828103825283818151815260200191508051906020019060200280838360005b8381101561028657808201518184015260208101905061026b565b505050509050019250505060405180910390f35b3480156102a657600080fd5b50610309600480360360408110156102bd57600080fd5b81019080803573ffffffffffffffffffffffffffffffffffffffff169060200190929190803573ffffffffffffffffffffffffffffffffffffffff169060200190929190505050610b5d565b005b60008073ffffffffffffffffffffffffffffffffffffffff166000803373ffffffffffffffffffffffffffffffffffffffff1673ffffffffffffffffffffffffffffffffffffffff16815260200190815260200160002060009054906101000a900473ffffffffffffffffffffffffffffffffffffffff1673ffffffffffffffffffffffffffffffffffffffff1614151515610435576040517f08c379a00000000000000000000000000000000000000000000000000000000081526004018080602001828103825260308152602001807f4d6574686f642063616e206f6e6c792062652063616c6c65642066726f6d206181526020017f6e20656e61626c6564206d6f64756c650000000000000000000000000000000081525060400191505060405180910390fd5b610442858585855a610feb565b9050949350505050565b3073ffffffffffffffffffffffffffffffffffffffff163373ffffffffffffffffffffffffffffffffffffffff16141515610515576040517f08c379a000000000000000000000000000000000000000000000000000000000815260040180806020018281038252602c8152602001807f4d6574686f642063616e206f6e6c792062652063616c6c65642066726f6d207481526020017f68697320636f6e7472616374000000000000000000000000000000000000000081525060400191505060405180910390fd5b600073ffffffffffffffffffffffffffffffffffffffff168173ffffffffffffffffffffffffffffffffffffffff161415801561057f5750600173ffffffffffffffffffffffffffffffffffffffff168173ffffffffffffffffffffffffffffffffffffffff1614155b15156105f3576040517f08c379a000000000000000000000000000000000000000000000000000000000815260040180806020018281038252601f8152602001807f496e76616c6964206d6f64756c6520616464726573732070726f76696465640081525060200191505060405180910390fd5b600073ffffffffffffffffffffffffffffffffffffffff166000808373ffffffffffffffffffffffffffffffffffffffff1673ffffffffffffffffffffffffffffffffffffffff16815260200190815260200160002060009054906101000a900473ffffffffffffffffffffffffffffffffffffffff1673ffffffffffffffffffffffffffffffffffffffff161415156106f5576040517f08c379a000000000000000000000000000000000000000000000000000000000815260040180806020018281038252601d8152602001807f4d6f64756c652068617320616c7265616479206265656e20616464656400000081525060200191505060405180910390fd5b600080600173ffffffffffffffffffffffffffffffffffffffff1673ffffffffffffffffffffffffffffffffffffffff16815260200190815260200160002060009054906101000a900473ffffffffffffffffffffffffffffffffffffffff166000808373ffffffffffffffffffffffffffffffffffffffff1673ffffffffffffffffffffffffffffffffffffffff16815260200190815260200160002060006101000a81548173ffffffffffffffffffffffffffffffffffffffff021916908373ffffffffffffffffffffffffffffffffffffffff16021790555080600080600173ffffffffffffffffffffffffffffffffffffffff1673ffffffffffffffffffffffffffffffffffffffff16815260200190815260200160002060006101000a81548173ffffffffffffffffffffffffffffffffffffffff021916908373ffffffffffffffffffffffffffffffffffffffff1602179055507fecdf3a3effea5783a3c4c2140e677577666428d44ed9d474a0b3a4c9943f844081604051808273ffffffffffffffffffffffffffffffffffffffff1673ffffffffffffffffffffffffffffffffffffffff16815260200191505060405180910390a150565b600181565b606060008090506000806000600173ffffffffffffffffffffffffffffffffffffffff1673ffffffffffffffffffffffffffffffffffffffff16815260200190815260200160002060009054906101000a900473ffffffffffffffffffffffffffffffffffffffff1690505b600173ffffffffffffffffffffffffffffffffffffffff168173ffffffffffffffffffffffffffffffffffffffff161415156109ca576000808273ffffffffffffffffffffffffffffffffffffffff1673ffffffffffffffffffffffffffffffffffffffff16815260200190815260200160002060009054906101000a900473ffffffffffffffffffffffffffffffffffffffff1690508180600101925050610926565b6060826040519080825280602002602001820160405280156109fb5781602001602082028038833980820191505090505b50905060009250600080600173ffffffffffffffffffffffffffffffffffffffff1673ffffffffffffffffffffffffffffffffffffffff16815260200190815260200160002060009054906101000a900473ffffffffffffffffffffffffffffffffffffffff1691505b600173ffffffffffffffffffffffffffffffffffffffff168273ffffffffffffffffffffffffffffffffffffffff16141515610b5457818184815181101515610aaa57fe5b9060200190602002019073ffffffffffffffffffffffffffffffffffffffff16908173ffffffffffffffffffffffffffffffffffffffff16815250506000808373ffffffffffffffffffffffffffffffffffffffff1673ffffffffffffffffffffffffffffffffffffffff16815260200190815260200160002060009054906101000a900473ffffffffffffffffffffffffffffffffffffffff1691508280600101935050610a65565b80935050505090565b3073ffffffffffffffffffffffffffffffffffffffff163373ffffffffffffffffffffffffffffffffffffffff16141515610c26576040517f08c379a000000000000000000000000000000000000000000000000000000000815260040180806020018281038252602c8152602001807f4d6574686f642063616e206f6e6c792062652063616c6c65642066726f6d207481526020017f68697320636f6e7472616374000000000000000000000000000000000000000081525060400191505060405180910390fd5b600073ffffffffffffffffffffffffffffffffffffffff168173ffffffffffffffffffffffffffffffffffffffff1614158015610c905750600173ffffffffffffffffffffffffffffffffffffffff168173ffffffffffffffffffffffffffffffffffffffff1614155b1515610d04576040517f08c379a000000000000000000000000000000000000000000000000000000000815260040180806020018281038252601f8152602001807f496e76616c6964206d6f64756c6520616464726573732070726f76696465640081525060200191505060405180910390fd5b8073ffffffffffffffffffffffffffffffffffffffff166000808473ffffffffffffffffffffffffffffffffffffffff1673ffffffffffffffffffffffffffffffffffffffff16815260200190815260200160002060009054906101000a900473ffffffffffffffffffffffffffffffffffffffff1673ffffffffffffffffffffffffffffffffffffffff16141515610e2b576040517f08c379a00000000000000000000000000000000000000000000000000000000081526004018080602001828103825260288152602001807f496e76616c696420707265764d6f64756c652c206d6f64756c6520706169722081526020017f70726f766964656400000000000000000000000000000000000000000000000081525060400191505060405180910390fd5b6000808273ffffffffffffffffffffffffffffffffffffffff1673ffffffffffffffffffffffffffffffffffffffff16815260200190815260200160002060009054906101000a900473ffffffffffffffffffffffffffffffffffffffff166000808473ffffffffffffffffffffffffffffffffffffffff1673ffffffffffffffffffffffffffffffffffffffff16815260200190815260200160002060006101000a81548173ffffffffffffffffffffffffffffffffffffffff021916908373ffffffffffffffffffffffffffffffffffffffff16021790555060008060008373ffffffffffffffffffffffffffffffffffffffff1673ffffffffffffffffffffffffffffffffffffffff16815260200190815260200160002060006101000a81548173ffffffffffffffffffffffffffffffffffffffff021916908373ffffffffffffffffffffffffffffffffffffffff1602179055507faab4fa2b463f581b2b32cb3b7e3b704b9ce37cc209b5fb4d77e593ace405427681604051808273ffffffffffffffffffffffffffffffffffffffff1673ffffffffffffffffffffffffffffffffffffffff16815260200191505060405180910390a15050565b6000806002811115610ff957fe5b83600281111561100557fe5b141561101e57611017868686856110fe565b90506110f5565b6001600281111561102b57fe5b83600281111561103757fe5b141561104f57611048868584611117565b90506110f4565b600061105a8561112e565b9050600073ffffffffffffffffffffffffffffffffffffffff168173ffffffffffffffffffffffffffffffffffffffff16141591507f4db17dd5e4732fb6da34a148104a592783ca119a1e7bb8829eba6cbadef0b51181604051808273ffffffffffffffffffffffffffffffffffffffff1673ffffffffffffffffffffffffffffffffffffffff16815260200191505060405180910390a1505b5b95945050505050565b6000806000845160208601878987f19050949350505050565b60008060008451602086018786f490509392505050565b60008151602083016000f0905091905056fea165627a7a723058204ff72d5c8d426e384cac74c51426521ac7841c98bb292cdb390708e3e8a317080029",
  "source": "pragma solidity ^0.5.0;\nimport \"../common/Enum.sol\";\nimport \"../common/SelfAuthorized.sol\";\nimport \"./Executor.sol\";\nimport \"./Module.sol\";\n\n\n/// @title Module Manager - A contract that manages modules that can execute transactions via this contract\n/// @author Stefan George - <stefan@gnosis.pm>\n/// @author Richard Meissner - <richard@gnosis.pm>\ncontract ModuleManager is SelfAuthorized, Executor {\n\n    event EnabledModule(Module module);\n    event DisabledModule(Module module);\n\n    address public constant SENTINEL_MODULES = address(0x1);\n\n    mapping (address => address) internal modules;\n    \n    function setupModules(address to, bytes memory data)\n        internal\n    {\n        require(modules[SENTINEL_MODULES] == address(0), \"Modules have already been initialized\");\n        modules[SENTINEL_MODULES] = SENTINEL_MODULES;\n        if (to != address(0))\n            // Setup has to complete successfully or transaction fails.\n            require(executeDelegateCall(to, data, gasleft()), \"Could not finish initialization\");\n    }\n\n    /// @dev Allows to add a module to the whitelist.\n    ///      This can only be done via a Safe transaction.\n    /// @param module Module to be whitelisted.\n    function enableModule(Module module)\n        public\n        authorized\n    {\n        // Module address cannot be null or sentinel.\n        require(address(module) != address(0) && address(module) != SENTINEL_MODULES, \"Invalid module address provided\");\n        // Module cannot be added twice.\n        require(modules[address(module)] == address(0), \"Module has already been added\");\n        modules[address(module)] = modules[SENTINEL_MODULES];\n        modules[SENTINEL_MODULES] = address(module);\n        emit EnabledModule(module);\n    }\n\n    /// @dev Allows to remove a module from the whitelist.\n    ///      This can only be done via a Safe transaction.\n    /// @param prevModule Module that pointed to the module to be removed in the linked list\n    /// @param module Module to be removed.\n    function disableModule(Module prevModule, Module module)\n        public\n        authorized\n    {\n        // Validate module address and check that it corresponds to module index.\n        require(address(module) != address(0) && address(module) != SENTINEL_MODULES, \"Invalid module address provided\");\n        require(modules[address(prevModule)] == address(module), \"Invalid prevModule, module pair provided\");\n        modules[address(prevModule)] = modules[address(module)];\n        modules[address(module)] = address(0);\n        emit DisabledModule(module);\n    }\n\n    /// @dev Allows a Module to execute a Safe transaction without any further confirmations.\n    /// @param to Destination address of module transaction.\n    /// @param value Ether value of module transaction.\n    /// @param data Data payload of module transaction.\n    /// @param operation Operation type of module transaction.\n    function execTransactionFromModule(address to, uint256 value, bytes memory data, Enum.Operation operation)\n        public\n        returns (bool success)\n    {\n        // Only whitelisted modules are allowed.\n        require(modules[msg.sender] != address(0), \"Method can only be called from an enabled module\");\n        // Execute transaction without further confirmations.\n        success = execute(to, value, data, operation, gasleft());\n    }\n\n    /// @dev Returns array of modules.\n    /// @return Array of modules.\n    function getModules()\n        public\n        view\n        returns (address[] memory)\n    {\n        // Calculate module count\n        uint256 moduleCount = 0;\n        address currentModule = modules[SENTINEL_MODULES];\n        while(currentModule != SENTINEL_MODULES) {\n            currentModule = modules[currentModule];\n            moduleCount ++;\n        }\n        address[] memory array = new address[](moduleCount);\n\n        // populate return array\n        moduleCount = 0;\n        currentModule = modules[SENTINEL_MODULES];\n        while(currentModule != SENTINEL_MODULES) {\n            array[moduleCount] = currentModule;\n            currentModule = modules[currentModule];\n            moduleCount ++;\n        }\n        return array;\n    }\n}\n",
  "sourcePath": "gnosis-safe/contracts/base/ModuleManager.sol",
  "compiler": {
    "name": "solc",
    "version": "0.5.0+commit.1d4f565a.Emscripten.clang"
  },
  "schemaVersion": "2.0.2",
  "updatedAt": "2019-02-22T16:34:35.742Z"
}