{"contractName":"ProxyFactory","abi":[{"anonymous":false,"inputs":[{"indexed":false,"name":"proxy","type":"address"}],"name":"ProxyCreation","type":"event"},{"constant":false,"inputs":[{"name":"masterCopy","type":"address"},{"name":"data","type":"bytes"}],"name":"createProxy","outputs":[{"name":"proxy","type":"address"}],"payable":false,"stateMutability":"nonpayable","type":"function"}],"bytecode":"0x608060405234801561001057600080fd5b50610560806100206000396000f3fe608060405260043610610041576000357c0100000000000000000000000000000000000000000000000000000000900463ffffffff16806361b69abd14610046575b600080fd5b34801561005257600080fd5b5061012c6004803603604081101561006957600080fd5b81019080803573ffffffffffffffffffffffffffffffffffffffff169060200190929190803590602001906401000000008111156100a657600080fd5b8201836020820111156100b857600080fd5b803590602001918460018302840111640100000000831117156100da57600080fd5b91908080601f016020809104026020016040519081016040528093929190818152602001838380828437600081840152601f19601f82011690508083019250505050505050919291929050505061016e565b604051808273ffffffffffffffffffffffffffffffffffffffff1673ffffffffffffffffffffffffffffffffffffffff16815260200191505060405180910390f35b60008261017961025d565b808273ffffffffffffffffffffffffffffffffffffffff1673ffffffffffffffffffffffffffffffffffffffff168152602001915050604051809103906000f0801580156101cb573d6000803e3d6000fd5b5090506000825111156101f45760008060008451602086016000865af114156101f357600080fd5b5b7fa38789425dbeee0239e16ff2d2567e31720127fbc6430758c1a4efc6aef29f8081604051808273ffffffffffffffffffffffffffffffffffffffff1673ffffffffffffffffffffffffffffffffffffffff16815260200191505060405180910390a192915050565b6040516102c78061026e8339019056fe608060405234801561001057600080fd5b506040516020806102c78339810180604052602081101561003057600080fd5b8101908080519060200190929190505050600073ffffffffffffffffffffffffffffffffffffffff168173ffffffffffffffffffffffffffffffffffffffff161415151561010c576040517f08c379a00000000000000000000000000000000000000000000000000000000081526004018080602001828103825260248152602001807f496e76616c6964206d617374657220636f707920616464726573732070726f7681526020017f696465640000000000000000000000000000000000000000000000000000000081525060400191505060405180910390fd5b806000806101000a81548173ffffffffffffffffffffffffffffffffffffffff021916908373ffffffffffffffffffffffffffffffffffffffff1602179055505061016b8061015c6000396000f3fe60806040526004361061004c576000357c0100000000000000000000000000000000000000000000000000000000900463ffffffff1680634555d5c91461008b5780635c60da1b146100b6575b73ffffffffffffffffffffffffffffffffffffffff600054163660008037600080366000845af43d6000803e6000811415610086573d6000fd5b3d6000f35b34801561009757600080fd5b506100a061010d565b6040518082815260200191505060405180910390f35b3480156100c257600080fd5b506100cb610116565b604051808273ffffffffffffffffffffffffffffffffffffffff1673ffffffffffffffffffffffffffffffffffffffff16815260200191505060405180910390f35b60006002905090565b60008060009054906101000a900473ffffffffffffffffffffffffffffffffffffffff1690509056fea165627a7a72305820e981cc2ed6eeaadc61173829f16576c194d53b26dad5739100151620a9fd77ac0029a165627a7a7230582086affb812e56bd4c728b8296457ace81edbab8741fb3b710a3063e0d62f9d8b80029","source":"pragma solidity ^0.5.0;\nimport \"./Proxy.sol\";\n\n\n/// @title Proxy Factory - Allows to create new proxy contact and execute a message call to the new proxy within one transaction.\n/// @author Stefan George - <stefan@gnosis.pm>\ncontract ProxyFactory {\n\n    event ProxyCreation(Proxy proxy);\n\n    /// @dev Allows to create new proxy contact and execute a message call to the new proxy within one transaction.\n    /// @param masterCopy Address of master copy.\n    /// @param data Payload for message call sent to new proxy contract.\n    function createProxy(address masterCopy, bytes memory data)\n        public\n        returns (Proxy proxy)\n    {\n        proxy = new Proxy(masterCopy);\n        if (data.length > 0)\n            // solium-disable-next-line security/no-inline-assembly\n            assembly {\n                if eq(call(gas, proxy, 0, add(data, 0x20), mload(data), 0, 0), 0) { revert(0, 0) }\n            }\n        emit ProxyCreation(proxy);\n    }\n}\n","compiler":{"name":"solc","version":"0.5.0+commit.1d4f565a.Emscripten.clang"},"schemaVersion":"2.0.2","updatedAt":"2019-03-07T10:42:57.085Z"}